{
  "contractName": "NFT",
  "abi": [
    {
      "inputs": [
        {
          "internalType": "string",
          "name": "_name",
          "type": "string"
        },
        {
          "internalType": "string",
          "name": "_symbol",
          "type": "string"
        }
      ],
      "stateMutability": "nonpayable",
      "type": "constructor"
    },
    {
      "anonymous": false,
      "inputs": [
        {
          "indexed": true,
          "internalType": "address",
          "name": "owner",
          "type": "address"
        },
        {
          "indexed": true,
          "internalType": "address",
          "name": "approved",
          "type": "address"
        },
        {
          "indexed": true,
          "internalType": "uint256",
          "name": "tokenId",
          "type": "uint256"
        }
      ],
      "name": "Approval",
      "type": "event"
    },
    {
      "anonymous": false,
      "inputs": [
        {
          "indexed": true,
          "internalType": "address",
          "name": "owner",
          "type": "address"
        },
        {
          "indexed": true,
          "internalType": "address",
          "name": "operator",
          "type": "address"
        },
        {
          "indexed": false,
          "internalType": "bool",
          "name": "approved",
          "type": "bool"
        }
      ],
      "name": "ApprovalForAll",
      "type": "event"
    },
    {
      "anonymous": false,
      "inputs": [
        {
          "indexed": true,
          "internalType": "address",
          "name": "from",
          "type": "address"
        },
        {
          "indexed": true,
          "internalType": "address",
          "name": "to",
          "type": "address"
        },
        {
          "indexed": true,
          "internalType": "uint256",
          "name": "tokenId",
          "type": "uint256"
        }
      ],
      "name": "Transfer",
      "type": "event"
    },
    {
      "inputs": [
        {
          "internalType": "address",
          "name": "to",
          "type": "address"
        },
        {
          "internalType": "uint256",
          "name": "tokenId",
          "type": "uint256"
        }
      ],
      "name": "approve",
      "outputs": [],
      "stateMutability": "nonpayable",
      "type": "function"
    },
    {
      "inputs": [
        {
          "internalType": "address",
          "name": "owner",
          "type": "address"
        }
      ],
      "name": "balanceOf",
      "outputs": [
        {
          "internalType": "uint256",
          "name": "",
          "type": "uint256"
        }
      ],
      "stateMutability": "view",
      "type": "function",
      "constant": true
    },
    {
      "inputs": [
        {
          "internalType": "uint256",
          "name": "tokenId",
          "type": "uint256"
        }
      ],
      "name": "getApproved",
      "outputs": [
        {
          "internalType": "address",
          "name": "",
          "type": "address"
        }
      ],
      "stateMutability": "view",
      "type": "function",
      "constant": true
    },
    {
      "inputs": [
        {
          "internalType": "address",
          "name": "owner",
          "type": "address"
        },
        {
          "internalType": "address",
          "name": "operator",
          "type": "address"
        }
      ],
      "name": "isApprovedForAll",
      "outputs": [
        {
          "internalType": "bool",
          "name": "",
          "type": "bool"
        }
      ],
      "stateMutability": "view",
      "type": "function",
      "constant": true
    },
    {
      "inputs": [],
      "name": "name",
      "outputs": [
        {
          "internalType": "string",
          "name": "",
          "type": "string"
        }
      ],
      "stateMutability": "view",
      "type": "function",
      "constant": true
    },
    {
      "inputs": [
        {
          "internalType": "uint256",
          "name": "tokenId",
          "type": "uint256"
        }
      ],
      "name": "ownerOf",
      "outputs": [
        {
          "internalType": "address",
          "name": "",
          "type": "address"
        }
      ],
      "stateMutability": "view",
      "type": "function",
      "constant": true
    },
    {
      "inputs": [
        {
          "internalType": "uint256",
          "name": "",
          "type": "uint256"
        }
      ],
      "name": "receipts",
      "outputs": [
        {
          "internalType": "string",
          "name": "",
          "type": "string"
        }
      ],
      "stateMutability": "view",
      "type": "function",
      "constant": true
    },
    {
      "inputs": [
        {
          "internalType": "address",
          "name": "from",
          "type": "address"
        },
        {
          "internalType": "address",
          "name": "to",
          "type": "address"
        },
        {
          "internalType": "uint256",
          "name": "tokenId",
          "type": "uint256"
        }
      ],
      "name": "safeTransferFrom",
      "outputs": [],
      "stateMutability": "nonpayable",
      "type": "function"
    },
    {
      "inputs": [
        {
          "internalType": "address",
          "name": "from",
          "type": "address"
        },
        {
          "internalType": "address",
          "name": "to",
          "type": "address"
        },
        {
          "internalType": "uint256",
          "name": "tokenId",
          "type": "uint256"
        },
        {
          "internalType": "bytes",
          "name": "_data",
          "type": "bytes"
        }
      ],
      "name": "safeTransferFrom",
      "outputs": [],
      "stateMutability": "nonpayable",
      "type": "function"
    },
    {
      "inputs": [
        {
          "internalType": "address",
          "name": "operator",
          "type": "address"
        },
        {
          "internalType": "bool",
          "name": "approved",
          "type": "bool"
        }
      ],
      "name": "setApprovalForAll",
      "outputs": [],
      "stateMutability": "nonpayable",
      "type": "function"
    },
    {
      "inputs": [
        {
          "internalType": "bytes4",
          "name": "interfaceId",
          "type": "bytes4"
        }
      ],
      "name": "supportsInterface",
      "outputs": [
        {
          "internalType": "bool",
          "name": "",
          "type": "bool"
        }
      ],
      "stateMutability": "view",
      "type": "function",
      "constant": true
    },
    {
      "inputs": [],
      "name": "symbol",
      "outputs": [
        {
          "internalType": "string",
          "name": "",
          "type": "string"
        }
      ],
      "stateMutability": "view",
      "type": "function",
      "constant": true
    },
    {
      "inputs": [
        {
          "internalType": "uint256",
          "name": "tokenId",
          "type": "uint256"
        }
      ],
      "name": "tokenURI",
      "outputs": [
        {
          "internalType": "string",
          "name": "",
          "type": "string"
        }
      ],
      "stateMutability": "view",
      "type": "function",
      "constant": true
    },
    {
      "inputs": [
        {
          "internalType": "address",
          "name": "from",
          "type": "address"
        },
        {
          "internalType": "address",
          "name": "to",
          "type": "address"
        },
        {
          "internalType": "uint256",
          "name": "tokenId",
          "type": "uint256"
        }
      ],
      "name": "transferFrom",
      "outputs": [],
      "stateMutability": "nonpayable",
      "type": "function"
    },
    {
      "inputs": [
        {
          "internalType": "string",
          "name": "_receipt",
          "type": "string"
        },
        {
          "internalType": "address",
          "name": "recipiant",
          "type": "address"
        }
      ],
      "name": "mint",
      "outputs": [],
      "stateMutability": "nonpayable",
      "type": "function"
    },
    {
      "inputs": [],
      "name": "print",
      "outputs": [
        {
          "internalType": "string[]",
          "name": "",
          "type": "string[]"
        }
      ],
      "stateMutability": "view",
      "type": "function",
      "constant": true
    }
  ],
  "bytecode": "0x60806040523480156200001157600080fd5b506040516200327b3803806200327b8339818101604052810190620000379190620001a3565b818181600090805190602001906200005192919062000075565b5080600190805190602001906200006a92919062000075565b5050505050620003ac565b8280546200008390620002bd565b90600052602060002090601f016020900481019282620000a75760008555620000f3565b82601f10620000c257805160ff1916838001178555620000f3565b82800160010185558215620000f3579182015b82811115620000f2578251825591602001919060010190620000d5565b5b50905062000102919062000106565b5090565b5b808211156200012157600081600090555060010162000107565b5090565b60006200013c620001368462000251565b62000228565b9050828152602081018484840111156200015b576200015a6200038c565b5b6200016884828562000287565b509392505050565b600082601f83011262000188576200018762000387565b5b81516200019a84826020860162000125565b91505092915050565b60008060408385031215620001bd57620001bc62000396565b5b600083015167ffffffffffffffff811115620001de57620001dd62000391565b5b620001ec8582860162000170565b925050602083015167ffffffffffffffff81111562000210576200020f62000391565b5b6200021e8582860162000170565b9150509250929050565b60006200023462000247565b9050620002428282620002f3565b919050565b6000604051905090565b600067ffffffffffffffff8211156200026f576200026e62000358565b5b6200027a826200039b565b9050602081019050919050565b60005b83811015620002a75780820151818401526020810190506200028a565b83811115620002b7576000848401525b50505050565b60006002820490506001821680620002d657607f821691505b60208210811415620002ed57620002ec62000329565b5b50919050565b620002fe826200039b565b810181811067ffffffffffffffff8211171562000320576200031f62000358565b5b80604052505050565b7f4e487b7100000000000000000000000000000000000000000000000000000000600052602260045260246000fd5b7f4e487b7100000000000000000000000000000000000000000000000000000000600052604160045260246000fd5b600080fd5b600080fd5b600080fd5b600080fd5b6000601f19601f8301169050919050565b612ebf80620003bc6000396000f3fe608060405234801561001057600080fd5b50600436106101005760003560e01c806342842e0e11610097578063a22cb46511610066578063a22cb465146102bf578063b88d4fde146102db578063c87b56dd146102f7578063e985e9c51461032757610100565b806342842e0e146102255780636352211e1461024157806370a082311461027157806395d89b41146102a157610100565b80630f7ee1ec116100d35780630f7ee1ec1461019f57806313bdfacd146101cf5780631c351a9d146101ed57806323b872dd1461020957610100565b806301ffc9a71461010557806306fdde0314610135578063081812fc14610153578063095ea7b314610183575b600080fd5b61011f600480360381019061011a9190611da2565b610357565b60405161012c919061230b565b60405180910390f35b61013d610439565b60405161014a9190612326565b60405180910390f35b61016d60048036038101906101689190611e58565b6104cb565b60405161017a9190612282565b60405180910390f35b61019d60048036038101906101989190611d62565b610550565b005b6101b960048036038101906101b49190611e58565b610668565b6040516101c69190612326565b60405180910390f35b6101d7610714565b6040516101e491906122e9565b60405180910390f35b61020760048036038101906102029190611dfc565b6107ed565b005b610223600480360381019061021e9190611c4c565b6108e5565b005b61023f600480360381019061023a9190611c4c565b610945565b005b61025b60048036038101906102569190611e58565b610965565b6040516102689190612282565b60405180910390f35b61028b60048036038101906102869190611bdf565b610a17565b6040516102989190612548565b60405180910390f35b6102a9610acf565b6040516102b69190612326565b60405180910390f35b6102d960048036038101906102d49190611d22565b610b61565b005b6102f560048036038101906102f09190611c9f565b610ce2565b005b610311600480360381019061030c9190611e58565b610d44565b60405161031e9190612326565b60405180910390f35b610341600480360381019061033c9190611c0c565b610e96565b60405161034e919061230b565b60405180910390f35b60007f80ac58cd000000000000000000000000000000000000000000000000000000007bffffffffffffffffffffffffffffffffffffffffffffffffffffffff1916827bffffffffffffffffffffffffffffffffffffffffffffffffffffffff1916148061042257507f5b5e139f000000000000000000000000000000000000000000000000000000007bffffffffffffffffffffffffffffffffffffffffffffffffffffffff1916827bffffffffffffffffffffffffffffffffffffffffffffffffffffffff1916145b80610432575061043182610f2a565b5b9050919050565b606060008054610448906127e8565b80601f0160208091040260200160405190810160405280929190818152602001828054610474906127e8565b80156104c15780601f10610496576101008083540402835291602001916104c1565b820191906000526020600020905b8154815290600101906020018083116104a457829003601f168201915b5050505050905090565b60006104d682610f94565b610515576040517f08c379a000000000000000000000000000000000000000000000000000000000815260040161050c90612488565b60405180910390fd5b6004600083815260200190815260200160002060009054906101000a900473ffffffffffffffffffffffffffffffffffffffff169050919050565b600061055b82610965565b90508073ffffffffffffffffffffffffffffffffffffffff168373ffffffffffffffffffffffffffffffffffffffff1614156105cc576040517f08c379a00000000000000000000000000000000000000000000000000000000081526004016105c3906124e8565b60405180910390fd5b8073ffffffffffffffffffffffffffffffffffffffff166105eb611000565b73ffffffffffffffffffffffffffffffffffffffff16148061061a575061061981610614611000565b610e96565b5b610659576040517f08c379a0000000000000000000000000000000000000000000000000000000008152600401610650906123e8565b60405180910390fd5b6106638383611008565b505050565b6007818154811061067857600080fd5b906000526020600020016000915090508054610693906127e8565b80601f01602080910402602001604051908101604052809291908181526020018280546106bf906127e8565b801561070c5780601f106106e15761010080835404028352916020019161070c565b820191906000526020600020905b8154815290600101906020018083116106ef57829003601f168201915b505050505081565b60606007805480602002602001604051908101604052809291908181526020016000905b828210156107e4578382906000526020600020018054610757906127e8565b80601f0160208091040260200160405190810160405280929190818152602001828054610783906127e8565b80156107d05780601f106107a5576101008083540402835291602001916107d0565b820191906000526020600020905b8154815290600101906020018083116107b357829003601f168201915b505050505081526020019060010190610738565b50505050905090565b6008826040516107fd9190612247565b908152602001604051809103902060009054906101000a900460ff1615610859576040517f08c379a000000000000000000000000000000000000000000000000000000000815260040161085090612508565b60405180910390fd5b6007829080600181540180825580915050600190039060005260206000200160009091909190915090805190602001906108949291906119f3565b50600060078054905090506108a982826110c1565b60016008846040516108bb9190612247565b908152602001604051809103902060006101000a81548160ff021916908315150217905550505050565b6108f66108f0611000565b8261128f565b610935576040517f08c379a000000000000000000000000000000000000000000000000000000000815260040161092c90612528565b60405180910390fd5b61094083838361136d565b505050565b61096083838360405180602001604052806000815250610ce2565b505050565b6000806002600084815260200190815260200160002060009054906101000a900473ffffffffffffffffffffffffffffffffffffffff169050600073ffffffffffffffffffffffffffffffffffffffff168173ffffffffffffffffffffffffffffffffffffffff161415610a0e576040517f08c379a0000000000000000000000000000000000000000000000000000000008152600401610a0590612428565b60405180910390fd5b80915050919050565b60008073ffffffffffffffffffffffffffffffffffffffff168273ffffffffffffffffffffffffffffffffffffffff161415610a88576040517f08c379a0000000000000000000000000000000000000000000000000000000008152600401610a7f90612408565b60405180910390fd5b600360008373ffffffffffffffffffffffffffffffffffffffff1673ffffffffffffffffffffffffffffffffffffffff168152602001908152602001600020549050919050565b606060018054610ade906127e8565b80601f0160208091040260200160405190810160405280929190818152602001828054610b0a906127e8565b8015610b575780601f10610b2c57610100808354040283529160200191610b57565b820191906000526020600020905b815481529060010190602001808311610b3a57829003601f168201915b5050505050905090565b610b69611000565b73ffffffffffffffffffffffffffffffffffffffff168273ffffffffffffffffffffffffffffffffffffffff161415610bd7576040517f08c379a0000000000000000000000000000000000000000000000000000000008152600401610bce906123a8565b60405180910390fd5b8060056000610be4611000565b73ffffffffffffffffffffffffffffffffffffffff1673ffffffffffffffffffffffffffffffffffffffff16815260200190815260200160002060008473ffffffffffffffffffffffffffffffffffffffff1673ffffffffffffffffffffffffffffffffffffffff16815260200190815260200160002060006101000a81548160ff0219169083151502179055508173ffffffffffffffffffffffffffffffffffffffff16610c91611000565b73ffffffffffffffffffffffffffffffffffffffff167f17307eab39ab6107e8899845ad3d59bd9653f200f220920489ca2b5937696c3183604051610cd6919061230b565b60405180910390a35050565b610cf3610ced611000565b8361128f565b610d32576040517f08c379a0000000000000000000000000000000000000000000000000000000008152600401610d2990612528565b60405180910390fd5b610d3e848484846115c9565b50505050565b6060610d4f82610f94565b610d8e576040517f08c379a0000000000000000000000000000000000000000000000000000000008152600401610d8590612468565b60405180910390fd5b6000600660008481526020019081526020016000208054610dae906127e8565b80601f0160208091040260200160405190810160405280929190818152602001828054610dda906127e8565b8015610e275780601f10610dfc57610100808354040283529160200191610e27565b820191906000526020600020905b815481529060010190602001808311610e0a57829003601f168201915b505050505090506000610e38611625565b9050600081511415610e4e578192505050610e91565b600082511115610e83578082604051602001610e6b92919061225e565b60405160208183030381529060405292505050610e91565b610e8c8461163c565b925050505b919050565b6000600560008473ffffffffffffffffffffffffffffffffffffffff1673ffffffffffffffffffffffffffffffffffffffff16815260200190815260200160002060008373ffffffffffffffffffffffffffffffffffffffff1673ffffffffffffffffffffffffffffffffffffffff16815260200190815260200160002060009054906101000a900460ff16905092915050565b60007f01ffc9a7000000000000000000000000000000000000000000000000000000007bffffffffffffffffffffffffffffffffffffffffffffffffffffffff1916827bffffffffffffffffffffffffffffffffffffffffffffffffffffffff1916149050919050565b60008073ffffffffffffffffffffffffffffffffffffffff166002600084815260200190815260200160002060009054906101000a900473ffffffffffffffffffffffffffffffffffffffff1673ffffffffffffffffffffffffffffffffffffffff1614159050919050565b600033905090565b816004600083815260200190815260200160002060006101000a81548173ffffffffffffffffffffffffffffffffffffffff021916908373ffffffffffffffffffffffffffffffffffffffff160217905550808273ffffffffffffffffffffffffffffffffffffffff1661107b83610965565b73ffffffffffffffffffffffffffffffffffffffff167f8c5be1e5ebec7d5bd14f71427d1e84f3dd0314c0f7b2291e5b200ac8c7c3b92560405160405180910390a45050565b600073ffffffffffffffffffffffffffffffffffffffff168273ffffffffffffffffffffffffffffffffffffffff161415611131576040517f08c379a000000000000000000000000000000000000000000000000000000000815260040161112890612448565b60405180910390fd5b61113a81610f94565b1561117a576040517f08c379a000000000000000000000000000000000000000000000000000000000815260040161117190612368565b60405180910390fd5b611186600083836116e3565b6001600360008473ffffffffffffffffffffffffffffffffffffffff1673ffffffffffffffffffffffffffffffffffffffff16815260200190815260200160002060008282546111d69190612677565b92505081905550816002600083815260200190815260200160002060006101000a81548173ffffffffffffffffffffffffffffffffffffffff021916908373ffffffffffffffffffffffffffffffffffffffff160217905550808273ffffffffffffffffffffffffffffffffffffffff16600073ffffffffffffffffffffffffffffffffffffffff167fddf252ad1be2c89b69c2b068fc378daa952ba7f163c4a11628f55a4df523b3ef60405160405180910390a45050565b600061129a82610f94565b6112d9576040517f08c379a00000000000000000000000000000000000000000000000000000000081526004016112d0906123c8565b60405180910390fd5b60006112e483610965565b90508073ffffffffffffffffffffffffffffffffffffffff168473ffffffffffffffffffffffffffffffffffffffff16148061135357508373ffffffffffffffffffffffffffffffffffffffff1661133b846104cb565b73ffffffffffffffffffffffffffffffffffffffff16145b8061136457506113638185610e96565b5b91505092915050565b8273ffffffffffffffffffffffffffffffffffffffff1661138d82610965565b73ffffffffffffffffffffffffffffffffffffffff16146113e3576040517f08c379a00000000000000000000000000000000000000000000000000000000081526004016113da906124a8565b60405180910390fd5b600073ffffffffffffffffffffffffffffffffffffffff168273ffffffffffffffffffffffffffffffffffffffff161415611453576040517f08c379a000000000000000000000000000000000000000000000000000000000815260040161144a90612388565b60405180910390fd5b61145e8383836116e3565b611469600082611008565b6001600360008573ffffffffffffffffffffffffffffffffffffffff1673ffffffffffffffffffffffffffffffffffffffff16815260200190815260200160002060008282546114b991906126fe565b925050819055506001600360008473ffffffffffffffffffffffffffffffffffffffff1673ffffffffffffffffffffffffffffffffffffffff16815260200190815260200160002060008282546115109190612677565b92505081905550816002600083815260200190815260200160002060006101000a81548173ffffffffffffffffffffffffffffffffffffffff021916908373ffffffffffffffffffffffffffffffffffffffff160217905550808273ffffffffffffffffffffffffffffffffffffffff168473ffffffffffffffffffffffffffffffffffffffff167fddf252ad1be2c89b69c2b068fc378daa952ba7f163c4a11628f55a4df523b3ef60405160405180910390a4505050565b6115d484848461136d565b6115e0848484846116e8565b61161f576040517f08c379a000000000000000000000000000000000000000000000000000000000815260040161161690612348565b60405180910390fd5b50505050565b606060405180602001604052806000815250905090565b606061164782610f94565b611686576040517f08c379a000000000000000000000000000000000000000000000000000000000815260040161167d906124c8565b60405180910390fd5b6000611690611625565b905060008151116116b057604051806020016040528060008152506116db565b806116ba8461187f565b6040516020016116cb92919061225e565b6040516020818303038152906040525b915050919050565b505050565b60006117098473ffffffffffffffffffffffffffffffffffffffff166119e0565b15611872578373ffffffffffffffffffffffffffffffffffffffff1663150b7a02611732611000565b8786866040518563ffffffff1660e01b8152600401611754949392919061229d565b602060405180830381600087803b15801561176e57600080fd5b505af192505050801561179f57506040513d601f19601f8201168201806040525081019061179c9190611dcf565b60015b611822573d80600081146117cf576040519150601f19603f3d011682016040523d82523d6000602084013e6117d4565b606091505b5060008151141561181a576040517f08c379a000000000000000000000000000000000000000000000000000000000815260040161181190612348565b60405180910390fd5b805181602001fd5b63150b7a0260e01b7bffffffffffffffffffffffffffffffffffffffffffffffffffffffff1916817bffffffffffffffffffffffffffffffffffffffffffffffffffffffff191614915050611877565b600190505b949350505050565b606060008214156118c7576040518060400160405280600181526020017f300000000000000000000000000000000000000000000000000000000000000081525090506119db565b600082905060005b600082146118f95780806118e29061284b565b915050600a826118f291906126cd565b91506118cf565b60008167ffffffffffffffff81111561191557611914612981565b5b6040519080825280601f01601f1916602001820160405280156119475781602001600182028036833780820191505090505b5090505b600085146119d45760018261196091906126fe565b9150600a8561196f9190612894565b603061197b9190612677565b60f81b81838151811061199157611990612952565b5b60200101907effffffffffffffffffffffffffffffffffffffffffffffffffffffffffffff1916908160001a905350600a856119cd91906126cd565b945061194b565b8093505050505b919050565b600080823b905060008111915050919050565b8280546119ff906127e8565b90600052602060002090601f016020900481019282611a215760008555611a68565b82601f10611a3a57805160ff1916838001178555611a68565b82800160010185558215611a68579182015b82811115611a67578251825591602001919060010190611a4c565b5b509050611a759190611a79565b5090565b5b80821115611a92576000816000905550600101611a7a565b5090565b6000611aa9611aa484612588565b612563565b905082815260208101848484011115611ac557611ac46129b5565b5b611ad08482856127a6565b509392505050565b6000611aeb611ae6846125b9565b612563565b905082815260208101848484011115611b0757611b066129b5565b5b611b128482856127a6565b509392505050565b600081359050611b2981612e2d565b92915050565b600081359050611b3e81612e44565b92915050565b600081359050611b5381612e5b565b92915050565b600081519050611b6881612e5b565b92915050565b600082601f830112611b8357611b826129b0565b5b8135611b93848260208601611a96565b91505092915050565b600082601f830112611bb157611bb06129b0565b5b8135611bc1848260208601611ad8565b91505092915050565b600081359050611bd981612e72565b92915050565b600060208284031215611bf557611bf46129bf565b5b6000611c0384828501611b1a565b91505092915050565b60008060408385031215611c2357611c226129bf565b5b6000611c3185828601611b1a565b9250506020611c4285828601611b1a565b9150509250929050565b600080600060608486031215611c6557611c646129bf565b5b6000611c7386828701611b1a565b9350506020611c8486828701611b1a565b9250506040611c9586828701611bca565b9150509250925092565b60008060008060808587031215611cb957611cb86129bf565b5b6000611cc787828801611b1a565b9450506020611cd887828801611b1a565b9350506040611ce987828801611bca565b925050606085013567ffffffffffffffff811115611d0a57611d096129ba565b5b611d1687828801611b6e565b91505092959194509250565b60008060408385031215611d3957611d386129bf565b5b6000611d4785828601611b1a565b9250506020611d5885828601611b2f565b9150509250929050565b60008060408385031215611d7957611d786129bf565b5b6000611d8785828601611b1a565b9250506020611d9885828601611bca565b9150509250929050565b600060208284031215611db857611db76129bf565b5b6000611dc684828501611b44565b91505092915050565b600060208284031215611de557611de46129bf565b5b6000611df384828501611b59565b91505092915050565b60008060408385031215611e1357611e126129bf565b5b600083013567ffffffffffffffff811115611e3157611e306129ba565b5b611e3d85828601611b9c565b9250506020611e4e85828601611b1a565b9150509250929050565b600060208284031215611e6e57611e6d6129bf565b5b6000611e7c84828501611bca565b91505092915050565b6000611e918383611f65565b905092915050565b611ea281612732565b82525050565b6000611eb3826125fa565b611ebd8185612628565b935083602082028501611ecf856125ea565b8060005b85811015611f0b5784840389528151611eec8582611e85565b9450611ef78361261b565b925060208a01995050600181019050611ed3565b50829750879550505050505092915050565b611f2681612744565b82525050565b6000611f3782612605565b611f418185612639565b9350611f518185602086016127b5565b611f5a816129c4565b840191505092915050565b6000611f7082612610565b611f7a818561264a565b9350611f8a8185602086016127b5565b611f93816129c4565b840191505092915050565b6000611fa982612610565b611fb3818561265b565b9350611fc38185602086016127b5565b611fcc816129c4565b840191505092915050565b6000611fe282612610565b611fec818561266c565b9350611ffc8185602086016127b5565b80840191505092915050565b600061201560328361265b565b9150612020826129d5565b604082019050919050565b6000612038601c8361265b565b915061204382612a24565b602082019050919050565b600061205b60248361265b565b915061206682612a4d565b604082019050919050565b600061207e60198361265b565b915061208982612a9c565b602082019050919050565b60006120a1602c8361265b565b91506120ac82612ac5565b604082019050919050565b60006120c460388361265b565b91506120cf82612b14565b604082019050919050565b60006120e7602a8361265b565b91506120f282612b63565b604082019050919050565b600061210a60298361265b565b915061211582612bb2565b604082019050919050565b600061212d60208361265b565b915061213882612c01565b602082019050919050565b600061215060318361265b565b915061215b82612c2a565b604082019050919050565b6000612173602c8361265b565b915061217e82612c79565b604082019050919050565b600061219660298361265b565b91506121a182612cc8565b604082019050919050565b60006121b9602f8361265b565b91506121c482612d17565b604082019050919050565b60006121dc60218361265b565b91506121e782612d66565b604082019050919050565b60006121ff60128361265b565b915061220a82612db5565b602082019050919050565b600061222260318361265b565b915061222d82612dde565b604082019050919050565b6122418161279c565b82525050565b60006122538284611fd7565b915081905092915050565b600061226a8285611fd7565b91506122768284611fd7565b91508190509392505050565b60006020820190506122976000830184611e99565b92915050565b60006080820190506122b26000830187611e99565b6122bf6020830186611e99565b6122cc6040830185612238565b81810360608301526122de8184611f2c565b905095945050505050565b600060208201905081810360008301526123038184611ea8565b905092915050565b60006020820190506123206000830184611f1d565b92915050565b600060208201905081810360008301526123408184611f9e565b905092915050565b6000602082019050818103600083015261236181612008565b9050919050565b600060208201905081810360008301526123818161202b565b9050919050565b600060208201905081810360008301526123a18161204e565b9050919050565b600060208201905081810360008301526123c181612071565b9050919050565b600060208201905081810360008301526123e181612094565b9050919050565b60006020820190508181036000830152612401816120b7565b9050919050565b60006020820190508181036000830152612421816120da565b9050919050565b60006020820190508181036000830152612441816120fd565b9050919050565b6000602082019050818103600083015261246181612120565b9050919050565b6000602082019050818103600083015261248181612143565b9050919050565b600060208201905081810360008301526124a181612166565b9050919050565b600060208201905081810360008301526124c181612189565b9050919050565b600060208201905081810360008301526124e1816121ac565b9050919050565b60006020820190508181036000830152612501816121cf565b9050919050565b60006020820190508181036000830152612521816121f2565b9050919050565b6000602082019050818103600083015261254181612215565b9050919050565b600060208201905061255d6000830184612238565b92915050565b600061256d61257e565b9050612579828261281a565b919050565b6000604051905090565b600067ffffffffffffffff8211156125a3576125a2612981565b5b6125ac826129c4565b9050602081019050919050565b600067ffffffffffffffff8211156125d4576125d3612981565b5b6125dd826129c4565b9050602081019050919050565b6000819050602082019050919050565b600081519050919050565b600081519050919050565b600081519050919050565b6000602082019050919050565b600082825260208201905092915050565b600082825260208201905092915050565b600082825260208201905092915050565b600082825260208201905092915050565b600081905092915050565b60006126828261279c565b915061268d8361279c565b9250827fffffffffffffffffffffffffffffffffffffffffffffffffffffffffffffffff038211156126c2576126c16128c5565b5b828201905092915050565b60006126d88261279c565b91506126e38361279c565b9250826126f3576126f26128f4565b5b828204905092915050565b60006127098261279c565b91506127148361279c565b925082821015612727576127266128c5565b5b828203905092915050565b600061273d8261277c565b9050919050565b60008115159050919050565b60007fffffffff0000000000000000000000000000000000000000000000000000000082169050919050565b600073ffffffffffffffffffffffffffffffffffffffff82169050919050565b6000819050919050565b82818337600083830152505050565b60005b838110156127d35780820151818401526020810190506127b8565b838111156127e2576000848401525b50505050565b6000600282049050600182168061280057607f821691505b6020821081141561281457612813612923565b5b50919050565b612823826129c4565b810181811067ffffffffffffffff8211171561284257612841612981565b5b80604052505050565b60006128568261279c565b91507fffffffffffffffffffffffffffffffffffffffffffffffffffffffffffffffff821415612889576128886128c5565b5b600182019050919050565b600061289f8261279c565b91506128aa8361279c565b9250826128ba576128b96128f4565b5b828206905092915050565b7f4e487b7100000000000000000000000000000000000000000000000000000000600052601160045260246000fd5b7f4e487b7100000000000000000000000000000000000000000000000000000000600052601260045260246000fd5b7f4e487b7100000000000000000000000000000000000000000000000000000000600052602260045260246000fd5b7f4e487b7100000000000000000000000000000000000000000000000000000000600052603260045260246000fd5b7f4e487b7100000000000000000000000000000000000000000000000000000000600052604160045260246000fd5b600080fd5b600080fd5b600080fd5b600080fd5b6000601f19601f8301169050919050565b7f4552433732313a207472616e7366657220746f206e6f6e20455243373231526560008201527f63656976657220696d706c656d656e7465720000000000000000000000000000602082015250565b7f4552433732313a20746f6b656e20616c7265616479206d696e74656400000000600082015250565b7f4552433732313a207472616e7366657220746f20746865207a65726f2061646460008201527f7265737300000000000000000000000000000000000000000000000000000000602082015250565b7f4552433732313a20617070726f766520746f2063616c6c657200000000000000600082015250565b7f4552433732313a206f70657261746f7220717565727920666f72206e6f6e657860008201527f697374656e7420746f6b656e0000000000000000000000000000000000000000602082015250565b7f4552433732313a20617070726f76652063616c6c6572206973206e6f74206f7760008201527f6e6572206e6f7220617070726f76656420666f7220616c6c0000000000000000602082015250565b7f4552433732313a2062616c616e636520717565727920666f7220746865207a6560008201527f726f206164647265737300000000000000000000000000000000000000000000602082015250565b7f4552433732313a206f776e657220717565727920666f72206e6f6e657869737460008201527f656e7420746f6b656e0000000000000000000000000000000000000000000000602082015250565b7f4552433732313a206d696e7420746f20746865207a65726f2061646472657373600082015250565b7f45524337323155524953746f726167653a2055524920717565727920666f722060008201527f6e6f6e6578697374656e7420746f6b656e000000000000000000000000000000602082015250565b7f4552433732313a20617070726f76656420717565727920666f72206e6f6e657860008201527f697374656e7420746f6b656e0000000000000000000000000000000000000000602082015250565b7f4552433732313a207472616e73666572206f6620746f6b656e2074686174206960008201527f73206e6f74206f776e0000000000000000000000000000000000000000000000602082015250565b7f4552433732314d657461646174613a2055524920717565727920666f72206e6f60008201527f6e6578697374656e7420746f6b656e0000000000000000000000000000000000602082015250565b7f4552433732313a20617070726f76616c20746f2063757272656e74206f776e6560008201527f7200000000000000000000000000000000000000000000000000000000000000602082015250565b7f4e465420616c7265616479206578697374730000000000000000000000000000600082015250565b7f4552433732313a207472616e736665722063616c6c6572206973206e6f74206f60008201527f776e6572206e6f7220617070726f766564000000000000000000000000000000602082015250565b612e3681612732565b8114612e4157600080fd5b50565b612e4d81612744565b8114612e5857600080fd5b50565b612e6481612750565b8114612e6f57600080fd5b50565b612e7b8161279c565b8114612e8657600080fd5b5056fea26469706673582212208880cbc6a13f8a7fc18b1f95e1072d26a59ff01b2b2ca68593f8a34536e2529364736f6c63430008070033",
  "immutableReferences": {},
  "source": "pragma solidity ^0.8.0;\r\n\r\nimport \"@openzeppelin/contracts/token/ERC721/extensions/ERC721URIStorage.sol\";\r\n\r\ncontract NFT is ERC721URIStorage {\r\n\r\n    string[] public receipts;\r\n\r\n    mapping(string => bool) receiptExists;\r\n\r\n    constructor(string memory _name, string memory _symbol) ERC721(_name, _symbol) {}\r\n\r\n    function mint(string memory _receipt, address recipiant) public{\r\n        require(!receiptExists[_receipt], \"NFT already exists\");\r\n\r\n        receipts.push(_receipt);\r\n        //krece od 1\r\n        uint _id = receipts.length;\r\n        _mint(recipiant, _id);\r\n        receiptExists[_receipt] = true;\r\n    }\r\n\r\n    function print() public view returns(string[] memory){\r\n        return receipts;\r\n    }\r\n}\r\n\r\n",
  "sourcePath": "C:/Users/Luka/Desktop/SupportChildrenV2.0/client/src/contracts/NFT.sol",
  "compiler": {
    "name": "solc",
    "version": "0.8.7+commit.e28d00a7.Emscripten.clang"
  },
  "schemaVersion": "3.4.1",
  "updatedAt": "2021-08-18T22:39:37.774Z",
  "networkType": "ethereum",
  "devdoc": {
    "kind": "dev",
    "methods": {
      "approve(address,uint256)": {
        "details": "See {IERC721-approve}."
      },
      "balanceOf(address)": {
        "details": "See {IERC721-balanceOf}."
      },
      "getApproved(uint256)": {
        "details": "See {IERC721-getApproved}."
      },
      "isApprovedForAll(address,address)": {
        "details": "See {IERC721-isApprovedForAll}."
      },
      "name()": {
        "details": "See {IERC721Metadata-name}."
      },
      "ownerOf(uint256)": {
        "details": "See {IERC721-ownerOf}."
      },
      "safeTransferFrom(address,address,uint256)": {
        "details": "See {IERC721-safeTransferFrom}."
      },
      "safeTransferFrom(address,address,uint256,bytes)": {
        "details": "See {IERC721-safeTransferFrom}."
      },
      "setApprovalForAll(address,bool)": {
        "details": "See {IERC721-setApprovalForAll}."
      },
      "supportsInterface(bytes4)": {
        "details": "See {IERC165-supportsInterface}."
      },
      "symbol()": {
        "details": "See {IERC721Metadata-symbol}."
      },
      "tokenURI(uint256)": {
        "details": "See {IERC721Metadata-tokenURI}."
      },
      "transferFrom(address,address,uint256)": {
        "details": "See {IERC721-transferFrom}."
      }
    },
    "version": 1
  },
  "userdoc": {
    "kind": "user",
    "methods": {},
    "version": 1
  }
}