{
  "contractName": "SupportChildren",
  "abi": [
    {
      "inputs": [
        {
          "internalType": "address",
          "name": "_v2factory",
          "type": "address"
        },
        {
          "internalType": "address",
          "name": "_v2router",
          "type": "address"
        },
        {
          "internalType": "address",
          "name": "_WETH",
          "type": "address"
        }
      ],
      "stateMutability": "nonpayable",
      "type": "constructor"
    },
    {
      "anonymous": false,
      "inputs": [
        {
          "indexed": false,
          "internalType": "uint256",
          "name": "campaignId",
          "type": "uint256"
        },
        {
          "components": [
            {
              "internalType": "uint256",
              "name": "endTimestamp",
              "type": "uint256"
            },
            {
              "internalType": "address payable",
              "name": "beneficiary",
              "type": "address"
            },
            {
              "internalType": "address",
              "name": "wantToken",
              "type": "address"
            },
            {
              "internalType": "uint256",
              "name": "hardCap",
              "type": "uint256"
            },
            {
              "internalType": "uint256",
              "name": "receivedAmount",
              "type": "uint256"
            },
            {
              "internalType": "uint256",
              "name": "campaignId",
              "type": "uint256"
            }
          ],
          "indexed": false,
          "internalType": "struct ISupportChildren.Campaign",
          "name": "campaign",
          "type": "tuple"
        }
      ],
      "name": "CampaignCreated",
      "type": "event"
    },
    {
      "anonymous": false,
      "inputs": [
        {
          "indexed": false,
          "internalType": "uint256",
          "name": "campaignId",
          "type": "uint256"
        },
        {
          "indexed": false,
          "internalType": "uint256",
          "name": "donatedAmountInWantToken",
          "type": "uint256"
        },
        {
          "indexed": false,
          "internalType": "address",
          "name": "tokenAddress",
          "type": "address"
        }
      ],
      "name": "Donation",
      "type": "event"
    },
    {
      "anonymous": false,
      "inputs": [
        {
          "indexed": true,
          "internalType": "address",
          "name": "previousOwner",
          "type": "address"
        },
        {
          "indexed": true,
          "internalType": "address",
          "name": "newOwner",
          "type": "address"
        }
      ],
      "name": "OwnershipTransferred",
      "type": "event"
    },
    {
      "inputs": [],
      "name": "WETH",
      "outputs": [
        {
          "internalType": "address",
          "name": "",
          "type": "address"
        }
      ],
      "stateMutability": "view",
      "type": "function",
      "constant": true
    },
    {
      "inputs": [
        {
          "internalType": "uint256",
          "name": "",
          "type": "uint256"
        }
      ],
      "name": "campaigns",
      "outputs": [
        {
          "internalType": "uint256",
          "name": "endTimestamp",
          "type": "uint256"
        },
        {
          "internalType": "address payable",
          "name": "beneficiary",
          "type": "address"
        },
        {
          "internalType": "address",
          "name": "wantToken",
          "type": "address"
        },
        {
          "internalType": "uint256",
          "name": "hardCap",
          "type": "uint256"
        },
        {
          "internalType": "uint256",
          "name": "receivedAmount",
          "type": "uint256"
        },
        {
          "internalType": "uint256",
          "name": "campaignId",
          "type": "uint256"
        }
      ],
      "stateMutability": "view",
      "type": "function",
      "constant": true
    },
    {
      "inputs": [
        {
          "internalType": "uint256",
          "name": "",
          "type": "uint256"
        },
        {
          "internalType": "uint256",
          "name": "",
          "type": "uint256"
        }
      ],
      "name": "donors",
      "outputs": [
        {
          "internalType": "address payable",
          "name": "from",
          "type": "address"
        },
        {
          "internalType": "uint256",
          "name": "amount",
          "type": "uint256"
        }
      ],
      "stateMutability": "view",
      "type": "function",
      "constant": true
    },
    {
      "inputs": [
        {
          "internalType": "address",
          "name": "",
          "type": "address"
        }
      ],
      "name": "donorsFirstCampaign",
      "outputs": [
        {
          "internalType": "uint256",
          "name": "",
          "type": "uint256"
        }
      ],
      "stateMutability": "view",
      "type": "function",
      "constant": true
    },
    {
      "inputs": [],
      "name": "nextCampaignId",
      "outputs": [
        {
          "internalType": "uint256",
          "name": "",
          "type": "uint256"
        }
      ],
      "stateMutability": "view",
      "type": "function",
      "constant": true
    },
    {
      "inputs": [],
      "name": "owner",
      "outputs": [
        {
          "internalType": "address",
          "name": "",
          "type": "address"
        }
      ],
      "stateMutability": "view",
      "type": "function",
      "constant": true
    },
    {
      "inputs": [],
      "name": "renounceOwnership",
      "outputs": [],
      "stateMutability": "nonpayable",
      "type": "function"
    },
    {
      "inputs": [
        {
          "internalType": "address",
          "name": "newOwner",
          "type": "address"
        }
      ],
      "name": "transferOwnership",
      "outputs": [],
      "stateMutability": "nonpayable",
      "type": "function"
    },
    {
      "inputs": [],
      "name": "v2factory",
      "outputs": [
        {
          "internalType": "address",
          "name": "",
          "type": "address"
        }
      ],
      "stateMutability": "view",
      "type": "function",
      "constant": true
    },
    {
      "inputs": [],
      "name": "v2router",
      "outputs": [
        {
          "internalType": "address",
          "name": "",
          "type": "address"
        }
      ],
      "stateMutability": "view",
      "type": "function",
      "constant": true
    },
    {
      "inputs": [
        {
          "internalType": "uint256",
          "name": "_campaignId",
          "type": "uint256"
        }
      ],
      "name": "isCampaignActive",
      "outputs": [
        {
          "internalType": "bool",
          "name": "",
          "type": "bool"
        }
      ],
      "stateMutability": "view",
      "type": "function",
      "constant": true
    },
    {
      "inputs": [
        {
          "internalType": "uint256",
          "name": "_campaignId",
          "type": "uint256"
        }
      ],
      "name": "getDonors",
      "outputs": [
        {
          "components": [
            {
              "internalType": "address payable",
              "name": "from",
              "type": "address"
            },
            {
              "internalType": "uint256",
              "name": "amount",
              "type": "uint256"
            }
          ],
          "internalType": "struct ISupportChildren.DonationStruct[]",
          "name": "",
          "type": "tuple[]"
        }
      ],
      "stateMutability": "view",
      "type": "function",
      "constant": true
    },
    {
      "inputs": [
        {
          "internalType": "uint256",
          "name": "_campaignId",
          "type": "uint256"
        }
      ],
      "name": "getCampaign",
      "outputs": [
        {
          "components": [
            {
              "internalType": "uint256",
              "name": "endTimestamp",
              "type": "uint256"
            },
            {
              "internalType": "address payable",
              "name": "beneficiary",
              "type": "address"
            },
            {
              "internalType": "address",
              "name": "wantToken",
              "type": "address"
            },
            {
              "internalType": "uint256",
              "name": "hardCap",
              "type": "uint256"
            },
            {
              "internalType": "uint256",
              "name": "receivedAmount",
              "type": "uint256"
            },
            {
              "internalType": "uint256",
              "name": "campaignId",
              "type": "uint256"
            }
          ],
          "internalType": "struct ISupportChildren.Campaign",
          "name": "",
          "type": "tuple"
        }
      ],
      "stateMutability": "view",
      "type": "function",
      "constant": true
    },
    {
      "inputs": [],
      "name": "getCampaigns",
      "outputs": [
        {
          "components": [
            {
              "internalType": "uint256",
              "name": "endTimestamp",
              "type": "uint256"
            },
            {
              "internalType": "address payable",
              "name": "beneficiary",
              "type": "address"
            },
            {
              "internalType": "address",
              "name": "wantToken",
              "type": "address"
            },
            {
              "internalType": "uint256",
              "name": "hardCap",
              "type": "uint256"
            },
            {
              "internalType": "uint256",
              "name": "receivedAmount",
              "type": "uint256"
            },
            {
              "internalType": "uint256",
              "name": "campaignId",
              "type": "uint256"
            }
          ],
          "internalType": "struct ISupportChildren.Campaign[]",
          "name": "",
          "type": "tuple[]"
        }
      ],
      "stateMutability": "view",
      "type": "function",
      "constant": true
    },
    {
      "inputs": [
        {
          "internalType": "address payable",
          "name": "_beneficiary",
          "type": "address"
        },
        {
          "internalType": "uint256",
          "name": "_endTimestamp",
          "type": "uint256"
        },
        {
          "internalType": "address",
          "name": "_wantToken",
          "type": "address"
        },
        {
          "internalType": "uint256",
          "name": "_hardCap",
          "type": "uint256"
        }
      ],
      "name": "createCampaign",
      "outputs": [],
      "stateMutability": "nonpayable",
      "type": "function"
    },
    {
      "inputs": [
        {
          "internalType": "uint256",
          "name": "_campaignId",
          "type": "uint256"
        },
        {
          "internalType": "address",
          "name": "_donorToken",
          "type": "address"
        },
        {
          "internalType": "uint256",
          "name": "_amountIn",
          "type": "uint256"
        }
      ],
      "name": "donate",
      "outputs": [],
      "stateMutability": "nonpayable",
      "type": "function"
    },
    {
      "inputs": [
        {
          "internalType": "uint256",
          "name": "_campaignId",
          "type": "uint256"
        },
        {
          "internalType": "string",
          "name": "_mail",
          "type": "string"
        }
      ],
      "name": "donateETH",
      "outputs": [],
      "stateMutability": "payable",
      "type": "function",
      "payable": true
    }
  ],
  "bytecode": "0x608060405260006001553480156200001657600080fd5b506040516200448d3803806200448d83398181016040528101906200003c9190620001d7565b60006200004e620001b860201b60201c565b9050806000806101000a81548173ffffffffffffffffffffffffffffffffffffffff021916908373ffffffffffffffffffffffffffffffffffffffff1602179055508073ffffffffffffffffffffffffffffffffffffffff16600073ffffffffffffffffffffffffffffffffffffffff167f8be0079c531659141344cd1fd0a4f28419497f9722a3daafe3b4186f6b6457e060405160405180910390a35082600260006101000a81548173ffffffffffffffffffffffffffffffffffffffff021916908373ffffffffffffffffffffffffffffffffffffffff16021790555081600360006101000a81548173ffffffffffffffffffffffffffffffffffffffff021916908373ffffffffffffffffffffffffffffffffffffffff16021790555080600460006101000a81548173ffffffffffffffffffffffffffffffffffffffff021916908373ffffffffffffffffffffffffffffffffffffffff1602179055505050506200027b565b600033905090565b600081519050620001d18162000261565b92915050565b600080600060608486031215620001ed57600080fd5b6000620001fd86828701620001c0565b93505060206200021086828701620001c0565b92505060406200022386828701620001c0565b9150509250925092565b60006200023a8262000241565b9050919050565b600073ffffffffffffffffffffffffffffffffffffffff82169050919050565b6200026c816200022d565b81146200027857600080fd5b50565b614202806200028b6000396000f3fe6080604052600436106100fe5760003560e01c806383bd62dd11610095578063ad5c464811610064578063ad5c464814610351578063de514b3c1461037c578063e1e3300914610398578063e75489c0146103d5578063f2fde38b146103fe576100fe565b806383bd62dd146102925780638da5cb5b146102d05780638f8dc10a146102fb578063a6b0363314610326576100fe565b8063330807a9116100d1578063330807a9146101e85780635598f8cc14610213578063715018a6146102505780637903a75614610267576100fe565b806301f8e60b14610103578063141961bc1461014057806325fb26801461018257806329516511146101ab575b600080fd5b34801561010f57600080fd5b5061012a60048036038101906101259190612c4d565b610427565b6040516101379190613d6e565b60405180910390f35b34801561014c57600080fd5b5061016760048036038101906101629190612dbb565b61043f565b60405161017996959493929190613d89565b60405180910390f35b34801561018e57600080fd5b506101a960048036038101906101a49190612de4565b6104bb565b005b3480156101b757600080fd5b506101d260048036038101906101cd9190612dbb565b61105f565b6040516101df9190613ab6565b60405180910390f35b3480156101f457600080fd5b506101fd611131565b60405161020a9190613990565b60405180910390f35b34801561021f57600080fd5b5061023a60048036038101906102359190612dbb565b611157565b6040516102479190613d53565b60405180910390f35b34801561025c57600080fd5b50610265611258565b005b34801561027357600080fd5b5061027c611393565b6040516102899190613d6e565b60405180910390f35b34801561029e57600080fd5b506102b960048036038101906102b49190612e8b565b611399565b6040516102c7929190613a19565b60405180910390f35b3480156102dc57600080fd5b506102e56113f7565b6040516102f29190613990565b60405180910390f35b34801561030757600080fd5b50610310611420565b60405161031d9190613990565b60405180910390f35b34801561033257600080fd5b5061033b611446565b6040516103489190613a94565b60405180910390f35b34801561035d57600080fd5b506103666115cd565b6040516103739190613990565b60405180910390f35b61039660048036038101906103919190612e33565b6115f3565b005b3480156103a457600080fd5b506103bf60048036038101906103ba9190612dbb565b611ee2565b6040516103cc9190613ad8565b60405180910390f35b3480156103e157600080fd5b506103fc60048036038101906103f79190612c9f565b611f3b565b005b34801561040a57600080fd5b5061042560048036038101906104209190612c4d565b612144565b005b60066020528060005260406000206000915090505481565b60076020528060005260406000206000915090508060000154908060010160009054906101000a900473ffffffffffffffffffffffffffffffffffffffff16908060020160009054906101000a900473ffffffffffffffffffffffffffffffffffffffff16908060030154908060040154908060050154905086565b60015483106104ff576040517f08c379a00000000000000000000000000000000000000000000000000000000081526004016104f690613b73565b60405180910390fd5b61050883611ee2565b610547576040517f08c379a000000000000000000000000000000000000000000000000000000000815260040161053e90613cf3565b60405180910390fd5b600073ffffffffffffffffffffffffffffffffffffffff168273ffffffffffffffffffffffffffffffffffffffff1614156105b7576040517f08c379a00000000000000000000000000000000000000000000000000000000081526004016105ae90613c93565b60405180910390fd5b60006007600085815260200190815260200160002060010160009054906101000a900473ffffffffffffffffffffffffffffffffffffffff16905060006007600086815260200190815260200160002060020160009054906101000a900473ffffffffffffffffffffffffffffffffffffffff16905060008073ffffffffffffffffffffffffffffffffffffffff168273ffffffffffffffffffffffffffffffffffffffff1614905060008090508115801561069e57508573ffffffffffffffffffffffffffffffffffffffff168373ffffffffffffffffffffffffffffffffffffffff16145b15610875576106ad85886122ee565b90508573ffffffffffffffffffffffffffffffffffffffff166323b872dd3386846040518463ffffffff1660e01b81526004016106ec939291906139ab565b602060405180830381600087803b15801561070657600080fd5b505af115801561071a573d6000803e3d6000fd5b505050506040513d601f19601f8201168201806040525081019061073e9190612d43565b506000600660003373ffffffffffffffffffffffffffffffffffffffff1673ffffffffffffffffffffffffffffffffffffffff1681526020019081526020016000205414156107cc5786600660003373ffffffffffffffffffffffffffffffffffffffff1673ffffffffffffffffffffffffffffffffffffffff168152602001908152602001600020819055505b8060076000898152602001908152602001600020600401600082825401925050819055506108318733836040518060400160405280600d81526020017f6e616d65406d61696c2e636f6d0000000000000000000000000000000000000081525061233d565b7fe6c8b2c0b4841288da79a2b2270034e656f4d5b859ae0dd2be4179ac21b38ea587828860405161086493929190613e5f565b60405180910390a15050505061105a565b81156108a157600460009054906101000a900473ffffffffffffffffffffffffffffffffffffffff1692505b600073ffffffffffffffffffffffffffffffffffffffff16600260009054906101000a900473ffffffffffffffffffffffffffffffffffffffff1673ffffffffffffffffffffffffffffffffffffffff1663e6a4390588866040518363ffffffff1660e01b8152600401610916929190613a42565b60206040518083038186803b15801561092e57600080fd5b505afa158015610942573d6000803e3d6000fd5b505050506040513d601f19601f820116820180604052508101906109669190612c76565b73ffffffffffffffffffffffffffffffffffffffff1614156109bd576040517f08c379a00000000000000000000000000000000000000000000000000000000081526004016109b490613b93565b60405180910390fd5b6060600267ffffffffffffffff811180156109d757600080fd5b50604051908082528060200260200182016040528015610a065781602001602082028036833780820191505090505b5090508681600081518110610a1757fe5b602002602001019073ffffffffffffffffffffffffffffffffffffffff16908173ffffffffffffffffffffffffffffffffffffffff16815250508381600181518110610a5f57fe5b602002602001019073ffffffffffffffffffffffffffffffffffffffff16908173ffffffffffffffffffffffffffffffffffffffff16815250506000806000610acb600260009054906101000a900473ffffffffffffffffffffffffffffffffffffffff168b8961246b565b91509150610ada89838361257d565b92506000610ae8848d6122ee565b9050610af581838561257d565b95508a73ffffffffffffffffffffffffffffffffffffffff166323b872dd3330896040518463ffffffff1660e01b8152600401610b34939291906139e2565b602060405180830381600087803b158015610b4e57600080fd5b505af1158015610b62573d6000803e3d6000fd5b505050506040513d601f19601f82011682018060405250810190610b869190612d43565b5060011515600560008d73ffffffffffffffffffffffffffffffffffffffff1673ffffffffffffffffffffffffffffffffffffffff16815260200190815260200160002060009054906101000a900460ff16151514610d08578a73ffffffffffffffffffffffffffffffffffffffff1663095ea7b3600360009054906101000a900473ffffffffffffffffffffffffffffffffffffffff167fffffffffffffffffffffffffffffffffffffffffffffffffffffffffffffffff6040518363ffffffff1660e01b8152600401610c5c929190613a6b565b602060405180830381600087803b158015610c7657600080fd5b505af1158015610c8a573d6000803e3d6000fd5b505050506040513d601f19601f82011682018060405250810190610cae9190612d43565b506001600560008d73ffffffffffffffffffffffffffffffffffffffff1673ffffffffffffffffffffffffffffffffffffffff16815260200190815260200160002060006101000a81548160ff0219169083151502179055505b60608715610dfd57600360009054906101000a900473ffffffffffffffffffffffffffffffffffffffff1673ffffffffffffffffffffffffffffffffffffffff166318cbafe588610d78612710610d6a6125e48861268190919063ffffffff16565b6126f190919063ffffffff16565b898e6103e842016040518663ffffffff1660e01b8152600401610d9f959493929190613ecd565b600060405180830381600087803b158015610db957600080fd5b505af1158015610dcd573d6000803e3d6000fd5b505050506040513d6000823e3d601f19601f82011682018060405250810190610df69190612d02565b9050610ee6565b600360009054906101000a900473ffffffffffffffffffffffffffffffffffffffff1673ffffffffffffffffffffffffffffffffffffffff166338ed173988610e65612710610e576125e48861268190919063ffffffff16565b6126f190919063ffffffff16565b898e6103e842016040518663ffffffff1660e01b8152600401610e8c959493929190613ecd565b600060405180830381600087803b158015610ea657600080fd5b505af1158015610eba573d6000803e3d6000fd5b505050506040513d6000823e3d601f19601f82011682018060405250810190610ee39190612d02565b90505b6000600660003373ffffffffffffffffffffffffffffffffffffffff1673ffffffffffffffffffffffffffffffffffffffff168152602001908152602001600020541415610f73578c600660003373ffffffffffffffffffffffffffffffffffffffff1673ffffffffffffffffffffffffffffffffffffffff168152602001908152602001600020819055505b80600181518110610f8057fe5b6020026020010151600760008f8152602001908152602001600020600401600082825401925050819055506110008d3383600181518110610fbd57fe5b60200260200101516040518060400160405280601581526020017f6b697461626f62616e6f7661406d61696c2e636f6d000000000000000000000081525061233d565b7fe6c8b2c0b4841288da79a2b2270034e656f4d5b859ae0dd2be4179ac21b38ea58d8260018151811061102f57fe5b60200260200101518e60405161104793929190613e5f565b60405180910390a1505050505050505050505b505050565b606060096000838152602001908152602001600020805480602002602001604051908101604052809291908181526020016000905b8282101561112657838290600052602060002090600202016040518060400160405290816000820160009054906101000a900473ffffffffffffffffffffffffffffffffffffffff1673ffffffffffffffffffffffffffffffffffffffff1673ffffffffffffffffffffffffffffffffffffffff16815260200160018201548152505081526020019060010190611094565b505050509050919050565b600260009054906101000a900473ffffffffffffffffffffffffffffffffffffffff1681565b61115f6129a1565b600760008381526020019081526020016000206040518060c0016040529081600082015481526020016001820160009054906101000a900473ffffffffffffffffffffffffffffffffffffffff1673ffffffffffffffffffffffffffffffffffffffff1673ffffffffffffffffffffffffffffffffffffffff1681526020016002820160009054906101000a900473ffffffffffffffffffffffffffffffffffffffff1673ffffffffffffffffffffffffffffffffffffffff1673ffffffffffffffffffffffffffffffffffffffff16815260200160038201548152602001600482015481526020016005820154815250509050919050565b611260612747565b73ffffffffffffffffffffffffffffffffffffffff1661127e6113f7565b73ffffffffffffffffffffffffffffffffffffffff16146112d4576040517f08c379a00000000000000000000000000000000000000000000000000000000081526004016112cb90613c73565b60405180910390fd5b600073ffffffffffffffffffffffffffffffffffffffff166000809054906101000a900473ffffffffffffffffffffffffffffffffffffffff1673ffffffffffffffffffffffffffffffffffffffff167f8be0079c531659141344cd1fd0a4f28419497f9722a3daafe3b4186f6b6457e060405160405180910390a360008060006101000a81548173ffffffffffffffffffffffffffffffffffffffff021916908373ffffffffffffffffffffffffffffffffffffffff160217905550565b60015481565b600960205281600052604060002081815481106113b257fe5b9060005260206000209060020201600091509150508060000160009054906101000a900473ffffffffffffffffffffffffffffffffffffffff16908060010154905082565b60008060009054906101000a900473ffffffffffffffffffffffffffffffffffffffff16905090565b600360009054906101000a900473ffffffffffffffffffffffffffffffffffffffff1681565b60608060015467ffffffffffffffff8111801561146257600080fd5b5060405190808252806020026020018201604052801561149c57816020015b6114896129a1565b8152602001906001900390816114815790505b50905060008090505b6001548110156115c557600760008281526020019081526020016000206040518060c0016040529081600082015481526020016001820160009054906101000a900473ffffffffffffffffffffffffffffffffffffffff1673ffffffffffffffffffffffffffffffffffffffff1673ffffffffffffffffffffffffffffffffffffffff1681526020016002820160009054906101000a900473ffffffffffffffffffffffffffffffffffffffff1673ffffffffffffffffffffffffffffffffffffffff1673ffffffffffffffffffffffffffffffffffffffff16815260200160038201548152602001600482015481526020016005820154815250508282815181106115ad57fe5b602002602001018190525080806001019150506114a5565b508091505090565b600460009054906101000a900473ffffffffffffffffffffffffffffffffffffffff1681565b6001548310611637576040517f08c379a000000000000000000000000000000000000000000000000000000000815260040161162e90613d33565b60405180910390fd5b61164083611ee2565b61167f576040517f08c379a000000000000000000000000000000000000000000000000000000000815260040161167690613c33565b60405180910390fd5b600034116116c2576040517f08c379a00000000000000000000000000000000000000000000000000000000081526004016116b990613bf3565b60405180910390fd5b60006007600085815260200190815260200160002060010160009054906101000a900473ffffffffffffffffffffffffffffffffffffffff16905060006007600086815260200190815260200160002060020160009054906101000a900473ffffffffffffffffffffffffffffffffffffffff16905060008090506000349050600073ffffffffffffffffffffffffffffffffffffffff168373ffffffffffffffffffffffffffffffffffffffff1614156119625761178181886122ee565b91508373ffffffffffffffffffffffffffffffffffffffff166108fc839081150290604051600060405180830381858888f193505050501580156117c9573d6000803e3d6000fd5b5081600760008981526020019081526020016000206004016000828254019250508190555081811115611840573373ffffffffffffffffffffffffffffffffffffffff166108fc8383039081150290604051600060405180830381858888f1935050505015801561183e573d6000803e3d6000fd5b505b6000600660003373ffffffffffffffffffffffffffffffffffffffff1673ffffffffffffffffffffffffffffffffffffffff1681526020019081526020016000205414156118cd5786600660003373ffffffffffffffffffffffffffffffffffffffff1673ffffffffffffffffffffffffffffffffffffffff168152602001908152602001600020819055505b61191d87338489898080601f016020809104026020016040519081016040528093929190818152602001838380828437600081840152601f19601f8201169050808301925050505050505061233d565b7fe6c8b2c0b4841288da79a2b2270034e656f4d5b859ae0dd2be4179ac21b38ea58783600060405161195193929190613e96565b60405180910390a150505050611edd565b600073ffffffffffffffffffffffffffffffffffffffff16600260009054906101000a900473ffffffffffffffffffffffffffffffffffffffff1673ffffffffffffffffffffffffffffffffffffffff1663e6a43905600460009054906101000a900473ffffffffffffffffffffffffffffffffffffffff16866040518363ffffffff1660e01b81526004016119f9929190613a42565b60206040518083038186803b158015611a1157600080fd5b505afa158015611a25573d6000803e3d6000fd5b505050506040513d601f19601f82011682018060405250810190611a499190612c76565b73ffffffffffffffffffffffffffffffffffffffff161415611aa0576040517f08c379a0000000000000000000000000000000000000000000000000000000008152600401611a9790613af3565b60405180910390fd5b6060600267ffffffffffffffff81118015611aba57600080fd5b50604051908082528060200260200182016040528015611ae95781602001602082028036833780820191505090505b509050600460009054906101000a900473ffffffffffffffffffffffffffffffffffffffff1681600081518110611b1c57fe5b602002602001019073ffffffffffffffffffffffffffffffffffffffff16908173ffffffffffffffffffffffffffffffffffffffff16815250508381600181518110611b6457fe5b602002602001019073ffffffffffffffffffffffffffffffffffffffff16908173ffffffffffffffffffffffffffffffffffffffff1681525050600080611bf0600260009054906101000a900473ffffffffffffffffffffffffffffffffffffffff16600460009054906101000a900473ffffffffffffffffffffffffffffffffffffffff168861246b565b915091506000611c0185848461257d565b90506000611c0f828d6122ee565b9050611c1c81848661257d565b96506060600360009054906101000a900473ffffffffffffffffffffffffffffffffffffffff1673ffffffffffffffffffffffffffffffffffffffff16637ff36ab589611c88612710611c7a61251c8861268190919063ffffffff16565b6126f190919063ffffffff16565b898e6103e842016040518663ffffffff1660e01b8152600401611cae9493929190613dea565b6000604051808303818588803b158015611cc757600080fd5b505af1158015611cdb573d6000803e3d6000fd5b50505050506040513d6000823e3d601f19601f82011682018060405250810190611d059190612d02565b90506000600660003373ffffffffffffffffffffffffffffffffffffffff1673ffffffffffffffffffffffffffffffffffffffff168152602001908152602001600020541415611d94578c600660003373ffffffffffffffffffffffffffffffffffffffff1673ffffffffffffffffffffffffffffffffffffffff168152602001908152602001600020819055505b80600181518110611da157fe5b6020026020010151600760008f81526020019081526020016000206004016000828254019250508190555087871115611e1e573373ffffffffffffffffffffffffffffffffffffffff166108fc8989039081150290604051600060405180830381858888f19350505050158015611e1c573d6000803e3d6000fd5b505b611e828d3383600181518110611e3057fe5b60200260200101518f8f8080601f016020809104026020016040519081016040528093929190818152602001838380828437600081840152601f19601f8201169050808301925050505050505061233d565b7fe6c8b2c0b4841288da79a2b2270034e656f4d5b859ae0dd2be4179ac21b38ea58d82600181518110611eb157fe5b60200260200101516000604051611eca93929190613e96565b60405180910390a1505050505050505050505b505050565b600060076000838152602001908152602001600020600301546007600084815260200190815260200160002060040154108015611f345750426007600084815260200190815260200160002060000154115b9050919050565b428311611f7d576040517f08c379a0000000000000000000000000000000000000000000000000000000008152600401611f7490613cd3565b60405180910390fd5b60008073ffffffffffffffffffffffffffffffffffffffff168573ffffffffffffffffffffffffffffffffffffffff1614611fba57849050611fbe565b3390505b611fc66129a1565b6040518060c001604052808681526020018373ffffffffffffffffffffffffffffffffffffffff1681526020018573ffffffffffffffffffffffffffffffffffffffff168152602001848152602001600081526020016001548152509050806007600060015481526020019081526020016000206000820151816000015560208201518160010160006101000a81548173ffffffffffffffffffffffffffffffffffffffff021916908373ffffffffffffffffffffffffffffffffffffffff16021790555060408201518160020160006101000a81548173ffffffffffffffffffffffffffffffffffffffff021916908373ffffffffffffffffffffffffffffffffffffffff160217905550606082015181600301556080820151816004015560a082015181600501559050507f214180c1d6d3e48f5beffd8261798521c451efe127e3fe1c2d0f2531c9c1c0d8600160008154809291906001019190505582604051612134929190613e36565b60405180910390a1505050505050565b61214c612747565b73ffffffffffffffffffffffffffffffffffffffff1661216a6113f7565b73ffffffffffffffffffffffffffffffffffffffff16146121c0576040517f08c379a00000000000000000000000000000000000000000000000000000000081526004016121b790613c73565b60405180910390fd5b600073ffffffffffffffffffffffffffffffffffffffff168173ffffffffffffffffffffffffffffffffffffffff161415612230576040517f08c379a000000000000000000000000000000000000000000000000000000000815260040161222790613b13565b60405180910390fd5b8073ffffffffffffffffffffffffffffffffffffffff166000809054906101000a900473ffffffffffffffffffffffffffffffffffffffff1673ffffffffffffffffffffffffffffffffffffffff167f8be0079c531659141344cd1fd0a4f28419497f9722a3daafe3b4186f6b6457e060405160405180910390a3806000806101000a81548173ffffffffffffffffffffffffffffffffffffffff021916908373ffffffffffffffffffffffffffffffffffffffff16021790555050565b600080600760008481526020019081526020016000206004015460076000858152602001908152602001600020600301540390508084116123325783915050612337565b809150505b92915050565b612345612a03565b83816000019073ffffffffffffffffffffffffffffffffffffffff16908173ffffffffffffffffffffffffffffffffffffffff1681525050828160200181815250506009600086815260200190815260200160002081908060018154018082558091505060019003906000526020600020906002020160009091909190915060008201518160000160006101000a81548173ffffffffffffffffffffffffffffffffffffffff021916908373ffffffffffffffffffffffffffffffffffffffff1602179055506020820151816001015550506008600086815260200190815260200160002082908060018154018082558091505060019003906000526020600020016000909190919091509080519060200190612463929190612a33565b505050505050565b600080600061247a858561274f565b50905060008061248b88888861287d565b73ffffffffffffffffffffffffffffffffffffffff16630902f1ac6040518163ffffffff1660e01b815260040160606040518083038186803b1580156124d057600080fd5b505afa1580156124e4573d6000803e3d6000fd5b505050506040513d601f19601f820116820180604052508101906125089190612d6c565b506dffffffffffffffffffffffffffff1691506dffffffffffffffffffffffffffff1691508273ffffffffffffffffffffffffffffffffffffffff168773ffffffffffffffffffffffffffffffffffffffff161461256757808261256a565b81815b8095508196505050505050935093915050565b60008084116125c1576040517f08c379a00000000000000000000000000000000000000000000000000000000081526004016125b890613d13565b60405180910390fd5b6000831180156125d15750600082115b612610576040517f08c379a000000000000000000000000000000000000000000000000000000000815260040161260790613c13565b60405180910390fd5b60006126276103e5866128ef90919063ffffffff16565b9050600061263e84836128ef90919063ffffffff16565b905060006126698361265b6103e8896128ef90919063ffffffff16565b61295190919063ffffffff16565b905080828161267457fe5b0493505050509392505050565b60008083141561269457600090506126eb565b60008284029050828482816126a557fe5b04146126e6576040517f08c379a00000000000000000000000000000000000000000000000000000000081526004016126dd90613c53565b60405180910390fd5b809150505b92915050565b6000808211612735576040517f08c379a000000000000000000000000000000000000000000000000000000000815260040161272c90613bd3565b60405180910390fd5b81838161273e57fe5b04905092915050565b600033905090565b6000808273ffffffffffffffffffffffffffffffffffffffff168473ffffffffffffffffffffffffffffffffffffffff1614156127c1576040517f08c379a00000000000000000000000000000000000000000000000000000000081526004016127b890613bb3565b60405180910390fd5b8273ffffffffffffffffffffffffffffffffffffffff168473ffffffffffffffffffffffffffffffffffffffff16106127fb5782846127fe565b83835b8092508193505050600073ffffffffffffffffffffffffffffffffffffffff168273ffffffffffffffffffffffffffffffffffffffff161415612876576040517f08c379a000000000000000000000000000000000000000000000000000000000815260040161286d90613cb3565b60405180910390fd5b9250929050565b600080600061288c858561274f565b915091508582826040516020016128a4929190613922565b604051602081830303815290604052805190602001206040516020016128cb92919061394e565b6040516020818303038152906040528051906020012060001c925050509392505050565b60008082148061290c575082828385029250828161290957fe5b04145b61294b576040517f08c379a000000000000000000000000000000000000000000000000000000000815260040161294290613b33565b60405180910390fd5b92915050565b600082828401915081101561299b576040517f08c379a000000000000000000000000000000000000000000000000000000000815260040161299290613b53565b60405180910390fd5b92915050565b6040518060c0016040528060008152602001600073ffffffffffffffffffffffffffffffffffffffff168152602001600073ffffffffffffffffffffffffffffffffffffffff1681526020016000815260200160008152602001600081525090565b6040518060400160405280600073ffffffffffffffffffffffffffffffffffffffff168152602001600081525090565b828054600181600116156101000203166002900490600052602060002090601f016020900481019282601f10612a7457805160ff1916838001178555612aa2565b82800160010185558215612aa2579182015b82811115612aa1578251825591602001919060010190612a86565b5b509050612aaf9190612ab3565b5090565b612ad591905b80821115612ad1576000816000905550600101612ab9565b5090565b90565b600081359050612ae781614142565b92915050565b600081519050612afc81614142565b92915050565b600081359050612b1181614159565b92915050565b600082601f830112612b2857600080fd5b8151612b3b612b3682613f54565b613f27565b91508181835260208401935060208101905083856020840282011115612b6057600080fd5b60005b83811015612b905781612b768882612c23565b845260208401935060208301925050600181019050612b63565b5050505092915050565b600081519050612ba981614170565b92915050565b60008083601f840112612bc157600080fd5b8235905067ffffffffffffffff811115612bda57600080fd5b602083019150836001820283011115612bf257600080fd5b9250929050565b600081519050612c0881614187565b92915050565b600081359050612c1d8161419e565b92915050565b600081519050612c328161419e565b92915050565b600081519050612c47816141b5565b92915050565b600060208284031215612c5f57600080fd5b6000612c6d84828501612ad8565b91505092915050565b600060208284031215612c8857600080fd5b6000612c9684828501612aed565b91505092915050565b60008060008060808587031215612cb557600080fd5b6000612cc387828801612b02565b9450506020612cd487828801612c0e565b9350506040612ce587828801612ad8565b9250506060612cf687828801612c0e565b91505092959194509250565b600060208284031215612d1457600080fd5b600082015167ffffffffffffffff811115612d2e57600080fd5b612d3a84828501612b17565b91505092915050565b600060208284031215612d5557600080fd5b6000612d6384828501612b9a565b91505092915050565b600080600060608486031215612d8157600080fd5b6000612d8f86828701612bf9565b9350506020612da086828701612bf9565b9250506040612db186828701612c38565b9150509250925092565b600060208284031215612dcd57600080fd5b6000612ddb84828501612c0e565b91505092915050565b600080600060608486031215612df957600080fd5b6000612e0786828701612c0e565b9350506020612e1886828701612ad8565b9250506040612e2986828701612c0e565b9150509250925092565b600080600060408486031215612e4857600080fd5b6000612e5686828701612c0e565b935050602084013567ffffffffffffffff811115612e7357600080fd5b612e7f86828701612baf565b92509250509250925092565b60008060408385031215612e9e57600080fd5b6000612eac85828601612c0e565b9250506020612ebd85828601612c0e565b9150509250929050565b6000612ed38383612f3c565b60208301905092915050565b6000612eeb83836137df565b60c08301905092915050565b6000612f0383836138d5565b60408301905092915050565b612f18816140d1565b82525050565b612f2781614055565b82525050565b612f3681614055565b82525050565b612f4581614043565b82525050565b612f5481614043565b82525050565b612f6b612f6682614043565b614107565b82525050565b6000612f7c82613fac565b612f868185613ff4565b9350612f9183613f7c565b8060005b83811015612fc2578151612fa98882612ec7565b9750612fb483613fcd565b925050600181019050612f95565b5085935050505092915050565b6000612fda82613fb7565b612fe48185614005565b9350612fef83613f8c565b8060005b838110156130205781516130078882612edf565b975061301283613fda565b925050600181019050612ff3565b5085935050505092915050565b600061303882613fc2565b6130428185614016565b935061304d83613f9c565b8060005b8381101561307e5781516130658882612ef7565b975061307083613fe7565b925050600181019050613051565b5085935050505092915050565b61309481614067565b82525050565b6130ab6130a682614073565b614119565b82525050565b60006130be601583614027565b91507f6e6f2064697265637420706f6f6c2065786973747300000000000000000000006000830152602082019050919050565b60006130fe602683614027565b91507f4f776e61626c653a206e6577206f776e657220697320746865207a65726f206160008301527f64647265737300000000000000000000000000000000000000000000000000006020830152604082019050919050565b6000613164601483614027565b91507f64732d6d6174682d6d756c2d6f766572666c6f770000000000000000000000006000830152602082019050919050565b60006131a4601483614027565b91507f64732d6d6174682d6164642d6f766572666c6f770000000000000000000000006000830152602082019050919050565b60006131e4603a83614027565b91507f537570706f72744368696c6472656e3a3a646f6e6174653a204e6f6e2065786960008301527f7374656e742063616d706169676e2069642070726f76696465640000000000006020830152604082019050919050565b600061324a602e83614027565b91507f537570706f72744368696c6472656e3a3a646f6e6174653a204e6f206469726560008301527f637420706f6f6c206578697374730000000000000000000000000000000000006020830152604082019050919050565b60006132b0602583614027565b91507f556e697377617056324c6962726172793a204944454e544943414c5f4144445260008301527f45535345530000000000000000000000000000000000000000000000000000006020830152604082019050919050565b6000613316601a83614027565b91507f536166654d6174683a206469766973696f6e206279207a65726f0000000000006000830152602082019050919050565b6000613356602083614038565b91507f96e8ac4277198ff8b6f785478aa9a39f403cb768dd02cbee326c3e7da348845f6000830152602082019050919050565b6000613396602f83614027565b91507f537570706f72744368696c6472656e3a3a646f6e6174654554483a20596f752060008301527f6d7573742073656e6420657468657200000000000000000000000000000000006020830152604082019050919050565b60006133fc602883614027565b91507f556e697377617056324c6962726172793a20494e53554646494349454e545f4c60008301527f49515549444954590000000000000000000000000000000000000000000000006020830152604082019050919050565b6000613462602f83614027565b91507f537570706f72744368696c6472656e3a3a646f6e6174654554483a2043616d7060008301527f6169676e206e6f742061637469766500000000000000000000000000000000006020830152604082019050919050565b60006134c8600183614038565b91507fff000000000000000000000000000000000000000000000000000000000000006000830152600182019050919050565b6000613508602183614027565b91507f536166654d6174683a206d756c7469706c69636174696f6e206f766572666c6f60008301527f77000000000000000000000000000000000000000000000000000000000000006020830152604082019050919050565b600061356e602083614027565b91507f4f776e61626c653a2063616c6c6572206973206e6f7420746865206f776e65726000830152602082019050919050565b60006135ae604083614027565b91507f537570706f72744368696c6472656e3a3a646f6e6174653a20646f6e6f72546f60008301527f6b656e203d3d2030782c2075736520646f6e61746545544820696e73746561646020830152604082019050919050565b6000613614601e83614027565b91507f556e697377617056324c6962726172793a205a45524f5f4144445245535300006000830152602082019050919050565b6000613654604083614027565b91507f537570706f72744368696c6472656e3a3a63726561746543616d706169676e3a60008301527f2043616d706169676e206d75737420656e6420696e20746865206675747572656020830152604082019050919050565b60006136ba602c83614027565b91507f537570706f72744368696c6472656e3a3a646f6e6174653a2043616d7061696760008301527f6e206e6f742061637469766500000000000000000000000000000000000000006020830152604082019050919050565b6000613720602b83614027565b91507f556e697377617056324c6962726172793a20494e53554646494349454e545f4960008301527f4e5055545f414d4f554e540000000000000000000000000000000000000000006020830152604082019050919050565b6000613786603d83614027565b91507f537570706f72744368696c6472656e3a3a646f6e6174654554483a204e6f6e2060008301527f6578697374656e742063616d706169676e2069642070726f76696465640000006020830152604082019050919050565b60c0820160008201516137f56000850182613904565b5060208201516138086020850182612f1e565b50604082015161381b6040850182612f3c565b50606082015161382e6060850182613904565b5060808201516138416080850182613904565b5060a082015161385460a0850182613904565b50505050565b60c0820160008201516138706000850182613904565b5060208201516138836020850182612f1e565b5060408201516138966040850182612f3c565b5060608201516138a96060850182613904565b5060808201516138bc6080850182613904565b5060a08201516138cf60a0850182613904565b50505050565b6040820160008201516138eb6000850182612f1e565b5060208201516138fe6020850182613904565b50505050565b61390d816140b7565b82525050565b61391c816140b7565b82525050565b600061392e8285612f5a565b60148201915061393e8284612f5a565b6014820191508190509392505050565b6000613959826134bb565b91506139658285612f5a565b601482019150613975828461309a565b60208201915061398482613349565b91508190509392505050565b60006020820190506139a56000830184612f4b565b92915050565b60006060820190506139c06000830186612f0f565b6139cd6020830185612f0f565b6139da6040830184613913565b949350505050565b60006060820190506139f76000830186612f0f565b613a046020830185612f4b565b613a116040830184613913565b949350505050565b6000604082019050613a2e6000830185612f2d565b613a3b6020830184613913565b9392505050565b6000604082019050613a576000830185612f4b565b613a646020830184612f4b565b9392505050565b6000604082019050613a806000830185612f4b565b613a8d6020830184613913565b9392505050565b60006020820190508181036000830152613aae8184612fcf565b905092915050565b60006020820190508181036000830152613ad0818461302d565b905092915050565b6000602082019050613aed600083018461308b565b92915050565b60006020820190508181036000830152613b0c816130b1565b9050919050565b60006020820190508181036000830152613b2c816130f1565b9050919050565b60006020820190508181036000830152613b4c81613157565b9050919050565b60006020820190508181036000830152613b6c81613197565b9050919050565b60006020820190508181036000830152613b8c816131d7565b9050919050565b60006020820190508181036000830152613bac8161323d565b9050919050565b60006020820190508181036000830152613bcc816132a3565b9050919050565b60006020820190508181036000830152613bec81613309565b9050919050565b60006020820190508181036000830152613c0c81613389565b9050919050565b60006020820190508181036000830152613c2c816133ef565b9050919050565b60006020820190508181036000830152613c4c81613455565b9050919050565b60006020820190508181036000830152613c6c816134fb565b9050919050565b60006020820190508181036000830152613c8c81613561565b9050919050565b60006020820190508181036000830152613cac816135a1565b9050919050565b60006020820190508181036000830152613ccc81613607565b9050919050565b60006020820190508181036000830152613cec81613647565b9050919050565b60006020820190508181036000830152613d0c816136ad565b9050919050565b60006020820190508181036000830152613d2c81613713565b9050919050565b60006020820190508181036000830152613d4c81613779565b9050919050565b600060c082019050613d68600083018461385a565b92915050565b6000602082019050613d836000830184613913565b92915050565b600060c082019050613d9e6000830189613913565b613dab6020830188612f2d565b613db86040830187612f4b565b613dc56060830186613913565b613dd26080830185613913565b613ddf60a0830184613913565b979650505050505050565b6000608082019050613dff6000830187613913565b8181036020830152613e118186612f71565b9050613e206040830185612f0f565b613e2d6060830184613913565b95945050505050565b600060e082019050613e4b6000830185613913565b613e58602083018461385a565b9392505050565b6000606082019050613e746000830186613913565b613e816020830185613913565b613e8e6040830184612f4b565b949350505050565b6000606082019050613eab6000830186613913565b613eb86020830185613913565b613ec56040830184612f0f565b949350505050565b600060a082019050613ee26000830188613913565b613eef6020830187613913565b8181036040830152613f018186612f71565b9050613f106060830185612f0f565b613f1d6080830184613913565b9695505050505050565b6000604051905081810181811067ffffffffffffffff82111715613f4a57600080fd5b8060405250919050565b600067ffffffffffffffff821115613f6b57600080fd5b602082029050602081019050919050565b6000819050602082019050919050565b6000819050602082019050919050565b6000819050602082019050919050565b600081519050919050565b600081519050919050565b600081519050919050565b6000602082019050919050565b6000602082019050919050565b6000602082019050919050565b600082825260208201905092915050565b600082825260208201905092915050565b600082825260208201905092915050565b600082825260208201905092915050565b600081905092915050565b600061404e82614097565b9050919050565b600061406082614097565b9050919050565b60008115159050919050565b6000819050919050565b60006dffffffffffffffffffffffffffff82169050919050565b600073ffffffffffffffffffffffffffffffffffffffff82169050919050565b6000819050919050565b600063ffffffff82169050919050565b60006140dc826140e3565b9050919050565b60006140ee826140f5565b9050919050565b600061410082614097565b9050919050565b600061411282614123565b9050919050565b6000819050919050565b600061412e82614135565b9050919050565b60008160601b9050919050565b61414b81614043565b811461415657600080fd5b50565b61416281614055565b811461416d57600080fd5b50565b61417981614067565b811461418457600080fd5b50565b6141908161407d565b811461419b57600080fd5b50565b6141a7816140b7565b81146141b257600080fd5b50565b6141be816140c1565b81146141c957600080fd5b5056fea2646970667358221220d5bb575fb19a5927bb7f96c2b0d62eafecd94d38fedc472799a8e83bf2e2cfd864736f6c63430006060033",
  "immutableReferences": {},
  "source": "pragma solidity >= 0.6.0 <= 0.8.0;\r\npragma experimental ABIEncoderV2;\r\n\r\nimport \"@openzeppelin/contracts/access/Ownable.sol\";\r\nimport \"@openzeppelin/contracts/token/ERC20/SafeERC20.sol\";\r\nimport \"@openzeppelin/contracts/math/SafeMath.sol\";\r\nimport \"@openzeppelin/contracts/token/ERC20/IERC20.sol\";\r\nimport \"@openzeppelin/contracts/token/ERC20/ERC20.sol\";\r\n\r\nimport \"@uniswap/v2-periphery/contracts/interfaces/IUniswapV2Router02.sol\";\r\nimport \"@uniswap/v2-core/contracts/interfaces/IUniswapV2Factory.sol\";\r\nimport {UniswapV2Library} from \"@uniswap/v2-periphery/contracts/libraries/UniswapV2Library.sol\";\r\n\r\nimport \"./interfaces/ISupportChildren.sol\";\r\n\r\ncontract SupportChildren is Ownable, ISupportChildren {\r\n    using SafeMath for uint256;\r\n\r\n    uint256 constant MAX_UINT = 2 ** 256 - 1;\r\n    uint256 public nextCampaignId = 0;\r\n\r\n    address public v2factory;\r\n    address public v2router;\r\n    address public WETH;\r\n\r\n    mapping(address => bool) private routerApprovedTokens;\r\n    mapping(address => uint256) public donorsFirstCampaign;\r\n    mapping(uint256 => Campaign) public campaigns;\r\n\r\n     //map of mails\r\n    mapping(uint => string[]) mails;\r\n\r\n    //map of all donors of a certain campaign\r\n    mapping(uint256 => DonationStruct[]) public donors;\r\n\r\n    constructor(address _v2factory, address _v2router, address _WETH) public {\r\n        v2factory = _v2factory;\r\n        v2router = _v2router;\r\n        WETH = _WETH;\r\n    }\r\n\r\n    function isCampaignActive(uint256 _campaignId) public view override returns (bool) {\r\n        return (\r\n            campaigns[_campaignId].receivedAmount < campaigns[_campaignId].hardCap &&\r\n            campaigns[_campaignId].endTimestamp > block.timestamp\r\n        );\r\n    }\r\n\r\n    function getDonors(uint256 _campaignId) public view returns(DonationStruct[] memory){\r\n        return donors[_campaignId];\r\n    }\r\n\r\n    function getCampaign(uint256 _campaignId) public view override returns (Campaign memory) {\r\n        return campaigns[_campaignId];\r\n    }\r\n\r\n    function getCampaigns() public view returns (Campaign[] memory){\r\n        Campaign[] memory allCamps = new Campaign[](nextCampaignId);\r\n        for(uint i = 0;i<nextCampaignId;i++){\r\n            allCamps[i] = campaigns[i];\r\n        }\r\n        return allCamps;\r\n    }\r\n\r\n    function createCampaign(\r\n        address payable _beneficiary,\r\n        uint256 _endTimestamp,\r\n        address _wantToken,\r\n        uint256 _hardCap\r\n    ) external override {\r\n        require(_endTimestamp > block.timestamp, \"SupportChildren::createCampaign: Campaign must end in the future\");\r\n\r\n        address payable beneficiary;\r\n        if (_beneficiary != address(0)) {\r\n            beneficiary = _beneficiary;\r\n        } else {\r\n            beneficiary = payable(msg.sender);\r\n        }\r\n\r\n        Campaign memory campaign = Campaign(\r\n            _endTimestamp,\r\n            beneficiary,\r\n            _wantToken,\r\n            _hardCap,\r\n            0,\r\n            nextCampaignId\r\n        );\r\n\r\n        campaigns[nextCampaignId] = campaign;\r\n        emit CampaignCreated(nextCampaignId++, campaign);\r\n    }\r\n\r\n    function donate(\r\n        uint256 _campaignId,\r\n        address _donorToken,\r\n        uint256 _amountIn\r\n    ) external override {\r\n        require(_campaignId < nextCampaignId, \"SupportChildren::donate: Non existent campaign id provided\");\r\n        require(isCampaignActive(_campaignId), \"SupportChildren::donate: Campaign not active\");\r\n        require(_donorToken != address(0), \"SupportChildren::donate: donorToken == 0x, use donateETH instead\");\r\n\r\n        address payable _beneficiary = campaigns[_campaignId].beneficiary;\r\n        address _wantToken = campaigns[_campaignId].wantToken;\r\n        bool isCampaignInETH = _wantToken == address(0);\r\n        uint256 _finalDonationAmount = 0;\r\n\r\n        if (!isCampaignInETH && _wantToken == _donorToken) {\r\n            _finalDonationAmount = getMaxDonationAmount(_amountIn, _campaignId);\r\n\r\n            IERC20(_donorToken).transferFrom(\r\n                msg.sender,\r\n                _beneficiary,\r\n                _finalDonationAmount\r\n            );\r\n\r\n            if (donorsFirstCampaign[msg.sender] == 0) {\r\n                donorsFirstCampaign[msg.sender] = _campaignId;\r\n            }\r\n\r\n            campaigns[_campaignId].receivedAmount += _finalDonationAmount;\r\n\r\n            updateDonations(_campaignId, msg.sender, _finalDonationAmount, \"name@mail.com\");\r\n\r\n            emit Donation(_campaignId, _finalDonationAmount, _donorToken);\r\n            return;\r\n        }\r\n\r\n        if (isCampaignInETH) {\r\n            _wantToken = WETH; // no direct pairs to eth in uniswap v2\r\n        }\r\n\r\n        require(\r\n            IUniswapV2Factory(v2factory).getPair(_donorToken, _wantToken) != address(0),\r\n            \"SupportChildren::donate: No direct pool exists\"\r\n        );\r\n\r\n        address[] memory path = new address[](2);\r\n        path[0] = _donorToken;\r\n        path[1] = _wantToken;\r\n        uint256 _amountInWantTokens;\r\n\r\n        (uint256 reserveA, uint256 reserveB) = UniswapV2Library.getReserves(\r\n            address(v2factory),\r\n            _donorToken,\r\n            _wantToken\r\n        );\r\n\r\n        _amountInWantTokens = UniswapV2Library.getAmountOut(\r\n            _amountIn,\r\n            reserveA,\r\n            reserveB\r\n        );\r\n\r\n        uint256 _maxDonationAmountInWantTokens = getMaxDonationAmount(\r\n            _amountInWantTokens,\r\n            _campaignId\r\n        );\r\n\r\n        _finalDonationAmount = UniswapV2Library.getAmountOut(\r\n            _maxDonationAmountInWantTokens,\r\n            reserveB,\r\n            reserveA\r\n        );\r\n\r\n        IERC20(_donorToken).transferFrom(\r\n            msg.sender,\r\n            address(this),\r\n            _finalDonationAmount\r\n        );\r\n\r\n        if (routerApprovedTokens[_donorToken] != true) {\r\n            IERC20(_donorToken).approve(address(v2router), MAX_UINT);\r\n            routerApprovedTokens[_donorToken] = true;\r\n        }\r\n\r\n        uint[] memory _swapReturnValues;\r\n\r\n        if (isCampaignInETH) {\r\n            _swapReturnValues = IUniswapV2Router02(v2router).swapExactTokensForETH(\r\n                _finalDonationAmount,\r\n                _maxDonationAmountInWantTokens.mul(9700).div(10000),\r\n                path,\r\n                _beneficiary,\r\n                block.timestamp + 1000\r\n            );\r\n        } else {\r\n            _swapReturnValues = IUniswapV2Router02(v2router).swapExactTokensForTokens(\r\n                _finalDonationAmount,\r\n                _maxDonationAmountInWantTokens.mul(9700).div(10000),\r\n                path,\r\n                _beneficiary,\r\n                block.timestamp + 1000\r\n            );\r\n        }\r\n\r\n        if (donorsFirstCampaign[msg.sender] == 0) {\r\n            donorsFirstCampaign[msg.sender] = _campaignId;\r\n        }\r\n\r\n        campaigns[_campaignId].receivedAmount += _swapReturnValues[1];\r\n\r\n        updateDonations(_campaignId, msg.sender, _swapReturnValues[1], \"kitabobanova@mail.com\");\r\n\r\n        emit Donation(_campaignId, _swapReturnValues[1], _donorToken);\r\n        return;\r\n    } \r\n\r\n    function donateETH(uint _campaignId, string calldata _mail) override external payable {\r\n        require(_campaignId < nextCampaignId, \"SupportChildren::donateETH: Non existent campaign id provided\");\r\n        require(isCampaignActive(_campaignId), \"SupportChildren::donateETH: Campaign not active\");\r\n        require(msg.value > 0, \"SupportChildren::donateETH: You must send ether\");\r\n\r\n        address payable _beneficiary = campaigns[_campaignId].beneficiary;\r\n        address _wantToken = campaigns[_campaignId].wantToken;\r\n        uint256 _finalDonationAmount = 0;\r\n        uint256 _amountIn = msg.value;\r\n\r\n        if (_wantToken == address(0)) {\r\n\r\n            _finalDonationAmount = getMaxDonationAmount(_amountIn, _campaignId);\r\n\r\n            payable(_beneficiary).transfer(_finalDonationAmount);\r\n            campaigns[_campaignId].receivedAmount += _finalDonationAmount;\r\n\r\n            if (_amountIn > _finalDonationAmount) {\r\n                payable(msg.sender).transfer(_amountIn - _finalDonationAmount);\r\n            }\r\n\r\n            if (donorsFirstCampaign[msg.sender] == 0) {\r\n                donorsFirstCampaign[msg.sender] = _campaignId;\r\n            }\r\n\r\n            updateDonations(_campaignId, msg.sender, _finalDonationAmount, _mail);\r\n\r\n            emit Donation(_campaignId, _finalDonationAmount, address(0));\r\n            return;\r\n        }\r\n\r\n        require(IUniswapV2Factory(v2factory).getPair(WETH, _wantToken) != address(0), \"no direct pool exists\");\r\n\r\n        address[] memory path = new address[](2);\r\n        path[0] = WETH;\r\n        path[1] = _wantToken;\r\n\r\n        (uint256 reserveA, uint256 reserveB) = UniswapV2Library.getReserves(\r\n            address(v2factory),\r\n            WETH,\r\n            _wantToken\r\n        );\r\n\r\n        uint256 _amountInWantTokens = UniswapV2Library.getAmountOut(\r\n            _amountIn,\r\n            reserveA,\r\n            reserveB\r\n        );\r\n\r\n        uint256 _maxDonationAmountInWantTokens = getMaxDonationAmount(\r\n            _amountInWantTokens,\r\n            _campaignId\r\n        );\r\n\r\n        _finalDonationAmount = UniswapV2Library.getAmountOut(\r\n            _maxDonationAmountInWantTokens,\r\n            reserveB,\r\n            reserveA\r\n        );\r\n\r\n        uint[] memory _swapReturnValues =\r\n        IUniswapV2Router02(v2router).swapExactETHForTokens{value: _finalDonationAmount}(\r\n            _maxDonationAmountInWantTokens.mul(9500).div(10000),\r\n            path,\r\n            _beneficiary,\r\n            block.timestamp + 1000\r\n        );\r\n\r\n        if (donorsFirstCampaign[msg.sender] == 0) {\r\n            donorsFirstCampaign[msg.sender] = _campaignId;\r\n        }\r\n\r\n        campaigns[_campaignId].receivedAmount += _swapReturnValues[1];\r\n\r\n        if (_amountIn > _finalDonationAmount) {\r\n            payable(msg.sender).transfer(_amountIn - _finalDonationAmount);\r\n        }\r\n\r\n        updateDonations(_campaignId, msg.sender, _swapReturnValues[1], _mail);\r\n\r\n\r\n        emit Donation(_campaignId, _swapReturnValues[1], address(0));\r\n        return;\r\n    }\r\n\r\n    function updateDonations(uint256 _campaignId,address payable _from,  uint256 _amount, string memory _mail) internal{\r\n        DonationStruct memory newDon;\r\n        newDon.from = payable(_from);\r\n        newDon.amount = _amount;\r\n\r\n        donors[_campaignId].push(newDon);\r\n        mails[_campaignId].push(_mail);\r\n    }\r\n\r\n    function getMaxDonationAmount(\r\n        uint256 _amountIn,\r\n        uint256 _campaignId\r\n    ) internal view returns (uint256 maxDonationAmount) {\r\n\r\n        uint256 _maxPossibleDonation = campaigns[_campaignId].hardCap - campaigns[_campaignId].receivedAmount;\r\n        if (_amountIn <= _maxPossibleDonation) {\r\n            return _amountIn;\r\n        }\r\n        return _maxPossibleDonation;\r\n    }\r\n}",
  "sourcePath": "C:\\Users\\Luka\\Desktop\\SupportChildrenV2.0\\client\\src\\contracts\\SupportChildren.sol",
  "compiler": {
    "name": "solc",
    "version": "0.6.6+commit.6c089d02.Emscripten.clang"
  },
  "schemaVersion": "3.4.1",
  "updatedAt": "2021-09-07T00:48:21.624Z",
  "networkType": "ethereum",
  "devdoc": {
    "methods": {
      "owner()": {
        "details": "Returns the address of the current owner."
      },
      "renounceOwnership()": {
        "details": "Leaves the contract without owner. It will not be possible to call `onlyOwner` functions anymore. Can only be called by the current owner.     * NOTE: Renouncing ownership will leave the contract without an owner, thereby removing any functionality that is only available to the owner."
      },
      "transferOwnership(address)": {
        "details": "Transfers ownership of the contract to a new account (`newOwner`). Can only be called by the current owner."
      }
    }
  },
  "userdoc": {
    "methods": {}
  }
}