{
  "contractName": "SupportChildrenNFT",
  "abi": [
    {
      "inputs": [
        {
          "internalType": "contract SupportChildren",
          "name": "_supportChildren",
          "type": "address"
        }
      ],
      "stateMutability": "nonpayable",
      "type": "constructor"
    },
    {
      "anonymous": false,
      "inputs": [
        {
          "indexed": true,
          "internalType": "address",
          "name": "owner",
          "type": "address"
        },
        {
          "indexed": true,
          "internalType": "address",
          "name": "approved",
          "type": "address"
        },
        {
          "indexed": true,
          "internalType": "uint256",
          "name": "tokenId",
          "type": "uint256"
        }
      ],
      "name": "Approval",
      "type": "event"
    },
    {
      "anonymous": false,
      "inputs": [
        {
          "indexed": true,
          "internalType": "address",
          "name": "owner",
          "type": "address"
        },
        {
          "indexed": true,
          "internalType": "address",
          "name": "operator",
          "type": "address"
        },
        {
          "indexed": false,
          "internalType": "bool",
          "name": "approved",
          "type": "bool"
        }
      ],
      "name": "ApprovalForAll",
      "type": "event"
    },
    {
      "anonymous": false,
      "inputs": [
        {
          "indexed": true,
          "internalType": "address",
          "name": "from",
          "type": "address"
        },
        {
          "indexed": true,
          "internalType": "address",
          "name": "to",
          "type": "address"
        },
        {
          "indexed": true,
          "internalType": "uint256",
          "name": "tokenId",
          "type": "uint256"
        }
      ],
      "name": "Transfer",
      "type": "event"
    },
    {
      "inputs": [
        {
          "internalType": "address",
          "name": "to",
          "type": "address"
        },
        {
          "internalType": "uint256",
          "name": "tokenId",
          "type": "uint256"
        }
      ],
      "name": "approve",
      "outputs": [],
      "stateMutability": "nonpayable",
      "type": "function"
    },
    {
      "inputs": [
        {
          "internalType": "address",
          "name": "owner",
          "type": "address"
        }
      ],
      "name": "balanceOf",
      "outputs": [
        {
          "internalType": "uint256",
          "name": "",
          "type": "uint256"
        }
      ],
      "stateMutability": "view",
      "type": "function",
      "constant": true
    },
    {
      "inputs": [],
      "name": "baseURI",
      "outputs": [
        {
          "internalType": "string",
          "name": "",
          "type": "string"
        }
      ],
      "stateMutability": "view",
      "type": "function",
      "constant": true
    },
    {
      "inputs": [
        {
          "internalType": "uint256",
          "name": "tokenId",
          "type": "uint256"
        }
      ],
      "name": "getApproved",
      "outputs": [
        {
          "internalType": "address",
          "name": "",
          "type": "address"
        }
      ],
      "stateMutability": "view",
      "type": "function",
      "constant": true
    },
    {
      "inputs": [
        {
          "internalType": "address",
          "name": "owner",
          "type": "address"
        },
        {
          "internalType": "address",
          "name": "operator",
          "type": "address"
        }
      ],
      "name": "isApprovedForAll",
      "outputs": [
        {
          "internalType": "bool",
          "name": "",
          "type": "bool"
        }
      ],
      "stateMutability": "view",
      "type": "function",
      "constant": true
    },
    {
      "inputs": [],
      "name": "name",
      "outputs": [
        {
          "internalType": "string",
          "name": "",
          "type": "string"
        }
      ],
      "stateMutability": "view",
      "type": "function",
      "constant": true
    },
    {
      "inputs": [],
      "name": "nextTokenId",
      "outputs": [
        {
          "internalType": "uint256",
          "name": "",
          "type": "uint256"
        }
      ],
      "stateMutability": "view",
      "type": "function",
      "constant": true
    },
    {
      "inputs": [
        {
          "internalType": "uint256",
          "name": "tokenId",
          "type": "uint256"
        }
      ],
      "name": "ownerOf",
      "outputs": [
        {
          "internalType": "address",
          "name": "",
          "type": "address"
        }
      ],
      "stateMutability": "view",
      "type": "function",
      "constant": true
    },
    {
      "inputs": [
        {
          "internalType": "address",
          "name": "from",
          "type": "address"
        },
        {
          "internalType": "address",
          "name": "to",
          "type": "address"
        },
        {
          "internalType": "uint256",
          "name": "tokenId",
          "type": "uint256"
        }
      ],
      "name": "safeTransferFrom",
      "outputs": [],
      "stateMutability": "nonpayable",
      "type": "function"
    },
    {
      "inputs": [
        {
          "internalType": "address",
          "name": "from",
          "type": "address"
        },
        {
          "internalType": "address",
          "name": "to",
          "type": "address"
        },
        {
          "internalType": "uint256",
          "name": "tokenId",
          "type": "uint256"
        },
        {
          "internalType": "bytes",
          "name": "_data",
          "type": "bytes"
        }
      ],
      "name": "safeTransferFrom",
      "outputs": [],
      "stateMutability": "nonpayable",
      "type": "function"
    },
    {
      "inputs": [
        {
          "internalType": "address",
          "name": "operator",
          "type": "address"
        },
        {
          "internalType": "bool",
          "name": "approved",
          "type": "bool"
        }
      ],
      "name": "setApprovalForAll",
      "outputs": [],
      "stateMutability": "nonpayable",
      "type": "function"
    },
    {
      "inputs": [],
      "name": "supportChildren",
      "outputs": [
        {
          "internalType": "contract SupportChildren",
          "name": "",
          "type": "address"
        }
      ],
      "stateMutability": "view",
      "type": "function",
      "constant": true
    },
    {
      "inputs": [
        {
          "internalType": "bytes4",
          "name": "interfaceId",
          "type": "bytes4"
        }
      ],
      "name": "supportsInterface",
      "outputs": [
        {
          "internalType": "bool",
          "name": "",
          "type": "bool"
        }
      ],
      "stateMutability": "view",
      "type": "function",
      "constant": true
    },
    {
      "inputs": [],
      "name": "symbol",
      "outputs": [
        {
          "internalType": "string",
          "name": "",
          "type": "string"
        }
      ],
      "stateMutability": "view",
      "type": "function",
      "constant": true
    },
    {
      "inputs": [
        {
          "internalType": "uint256",
          "name": "index",
          "type": "uint256"
        }
      ],
      "name": "tokenByIndex",
      "outputs": [
        {
          "internalType": "uint256",
          "name": "",
          "type": "uint256"
        }
      ],
      "stateMutability": "view",
      "type": "function",
      "constant": true
    },
    {
      "inputs": [
        {
          "internalType": "address",
          "name": "owner",
          "type": "address"
        },
        {
          "internalType": "uint256",
          "name": "index",
          "type": "uint256"
        }
      ],
      "name": "tokenOfOwnerByIndex",
      "outputs": [
        {
          "internalType": "uint256",
          "name": "",
          "type": "uint256"
        }
      ],
      "stateMutability": "view",
      "type": "function",
      "constant": true
    },
    {
      "inputs": [
        {
          "internalType": "uint256",
          "name": "tokenId",
          "type": "uint256"
        }
      ],
      "name": "tokenURI",
      "outputs": [
        {
          "internalType": "string",
          "name": "",
          "type": "string"
        }
      ],
      "stateMutability": "view",
      "type": "function",
      "constant": true
    },
    {
      "inputs": [],
      "name": "totalSupply",
      "outputs": [
        {
          "internalType": "uint256",
          "name": "",
          "type": "uint256"
        }
      ],
      "stateMutability": "view",
      "type": "function",
      "constant": true
    },
    {
      "inputs": [
        {
          "internalType": "address",
          "name": "from",
          "type": "address"
        },
        {
          "internalType": "address",
          "name": "to",
          "type": "address"
        },
        {
          "internalType": "uint256",
          "name": "tokenId",
          "type": "uint256"
        }
      ],
      "name": "transferFrom",
      "outputs": [],
      "stateMutability": "nonpayable",
      "type": "function"
    },
    {
      "inputs": [
        {
          "internalType": "address",
          "name": "to",
          "type": "address"
        },
        {
          "internalType": "string",
          "name": "receipt",
          "type": "string"
        }
      ],
      "name": "mint",
      "outputs": [],
      "stateMutability": "nonpayable",
      "type": "function"
    }
  ],
  "bytecode": "0x60806040526001600b553480156200001657600080fd5b50604051620037493803806200374983398181016040528101906200003c919062000322565b6040518060400160405280601381526020017f537570706f72744368696c6472656e204e4654000000000000000000000000008152506040518060400160405280600781526020017f535043484e465400000000000000000000000000000000000000000000000000815250620000c06301ffc9a760e01b6200018460201b60201c565b8160069080519060200190620000d89291906200025c565b508060079080519060200190620000f19291906200025c565b506200010a6380ac58cd60e01b6200018460201b60201c565b62000122635b5e139f60e01b6200018460201b60201c565b6200013a63780e9d6360e01b6200018460201b60201c565b505080600a60006101000a81548173ffffffffffffffffffffffffffffffffffffffff021916908373ffffffffffffffffffffffffffffffffffffffff1602179055505062000425565b63ffffffff60e01b817bffffffffffffffffffffffffffffffffffffffffffffffffffffffff19161415620001f0576040517f08c379a0000000000000000000000000000000000000000000000000000000008152600401620001e79062000390565b60405180910390fd5b6001600080837bffffffffffffffffffffffffffffffffffffffffffffffffffffffff19167bffffffffffffffffffffffffffffffffffffffffffffffffffffffff1916815260200190815260200160002060006101000a81548160ff02191690831515021790555050565b828054600181600116156101000203166002900490600052602060002090601f016020900481019282601f106200029f57805160ff1916838001178555620002d0565b82800160010185558215620002d0579182015b82811115620002cf578251825591602001919060010190620002b2565b5b509050620002df9190620002e3565b5090565b6200030891905b8082111562000304576000816000905550600101620002ea565b5090565b90565b6000815190506200031c816200040b565b92915050565b6000602082840312156200033557600080fd5b600062000345848285016200030b565b91505092915050565b60006200035d601c83620003b2565b91507f4552433136353a20696e76616c696420696e74657266616365206964000000006000830152602082019050919050565b60006020820190508181036000830152620003ab816200034e565b9050919050565b600082825260208201905092915050565b6000620003d082620003eb565b9050919050565b6000620003e482620003c3565b9050919050565b600073ffffffffffffffffffffffffffffffffffffffff82169050919050565b6200041681620003d7565b81146200042257600080fd5b50565b61331480620004356000396000f3fe608060405234801561001057600080fd5b506004361061012c5760003560e01c80636c0360eb116100ad578063b88d4fde11610071578063b88d4fde14610357578063bea7d6d614610373578063c87b56dd14610391578063d0def521146103c1578063e985e9c5146103dd5761012c565b80636c0360eb146102b157806370a08231146102cf57806375794a3c146102ff57806395d89b411461031d578063a22cb4651461033b5761012c565b806323b872dd116100f457806323b872dd146101e95780632f745c591461020557806342842e0e146102355780634f6ccce7146102515780636352211e146102815761012c565b806301ffc9a71461013157806306fdde0314610161578063081812fc1461017f578063095ea7b3146101af57806318160ddd146101cb575b600080fd5b61014b600480360381019061014691906123cb565b61040d565b6040516101589190612d90565b60405180910390f35b610169610474565b6040516101769190612dc6565b60405180910390f35b6101996004803603810190610194919061241d565b610516565b6040516101a69190612d29565b60405180910390f35b6101c960048036038101906101c4919061238f565b61059b565b005b6101d36106b3565b6040516101e09190613068565b60405180910390f35b61020360048036038101906101fe9190612231565b6106c4565b005b61021f600480360381019061021a919061238f565b610724565b60405161022c9190613068565b60405180910390f35b61024f600480360381019061024a9190612231565b61077f565b005b61026b6004803603810190610266919061241d565b61079f565b6040516102789190613068565b60405180910390f35b61029b6004803603810190610296919061241d565b6107c2565b6040516102a89190612d29565b60405180910390f35b6102b96107f9565b6040516102c69190612dc6565b60405180910390f35b6102e960048036038101906102e491906121cc565b61089b565b6040516102f69190613068565b60405180910390f35b61030761095a565b6040516103149190613068565b60405180910390f35b610325610960565b6040516103329190612dc6565b60405180910390f35b610355600480360381019061035091906122fb565b610a02565b005b610371600480360381019061036c9190612280565b610b83565b005b61037b610be5565b6040516103889190612dab565b60405180910390f35b6103ab60048036038101906103a6919061241d565b610c0b565b6040516103b89190612dc6565b60405180910390f35b6103db60048036038101906103d69190612337565b610d8e565b005b6103f760048036038101906103f291906121f5565b610f36565b6040516104049190612d90565b60405180910390f35b6000806000837bffffffffffffffffffffffffffffffffffffffffffffffffffffffff19167bffffffffffffffffffffffffffffffffffffffffffffffffffffffff1916815260200190815260200160002060009054906101000a900460ff169050919050565b606060068054600181600116156101000203166002900480601f01602080910402602001604051908101604052809291908181526020018280546001816001161561010002031660029004801561050c5780601f106104e15761010080835404028352916020019161050c565b820191906000526020600020905b8154815290600101906020018083116104ef57829003601f168201915b5050505050905090565b600061052182610fca565b610560576040517f08c379a000000000000000000000000000000000000000000000000000000000815260040161055790612f88565b60405180910390fd5b6004600083815260200190815260200160002060009054906101000a900473ffffffffffffffffffffffffffffffffffffffff169050919050565b60006105a6826107c2565b90508073ffffffffffffffffffffffffffffffffffffffff168373ffffffffffffffffffffffffffffffffffffffff161415610617576040517f08c379a000000000000000000000000000000000000000000000000000000000815260040161060e90613008565b60405180910390fd5b8073ffffffffffffffffffffffffffffffffffffffff16610636610fe7565b73ffffffffffffffffffffffffffffffffffffffff16148061066557506106648161065f610fe7565b610f36565b5b6106a4576040517f08c379a000000000000000000000000000000000000000000000000000000000815260040161069b90612f08565b60405180910390fd5b6106ae8383610fef565b505050565b60006106bf60026110a8565b905090565b6106d56106cf610fe7565b826110bd565b610714576040517f08c379a000000000000000000000000000000000000000000000000000000000815260040161070b90613028565b60405180910390fd5b61071f83838361119b565b505050565b600061077782600160008673ffffffffffffffffffffffffffffffffffffffff1673ffffffffffffffffffffffffffffffffffffffff1681526020019081526020016000206113b290919063ffffffff16565b905092915050565b61079a83838360405180602001604052806000815250610b83565b505050565b6000806107b68360026113cc90919063ffffffff16565b50905080915050919050565b60006107f2826040518060600160405280602981526020016132b66029913960026113fb9092919063ffffffff16565b9050919050565b606060098054600181600116156101000203166002900480601f0160208091040260200160405190810160405280929190818152602001828054600181600116156101000203166002900480156108915780601f1061086657610100808354040283529160200191610891565b820191906000526020600020905b81548152906001019060200180831161087457829003601f168201915b5050505050905090565b60008073ffffffffffffffffffffffffffffffffffffffff168273ffffffffffffffffffffffffffffffffffffffff16141561090c576040517f08c379a000000000000000000000000000000000000000000000000000000000815260040161090390612f28565b60405180910390fd5b610953600160008473ffffffffffffffffffffffffffffffffffffffff1673ffffffffffffffffffffffffffffffffffffffff16815260200190815260200160002061141a565b9050919050565b600b5481565b606060078054600181600116156101000203166002900480601f0160208091040260200160405190810160405280929190818152602001828054600181600116156101000203166002900480156109f85780601f106109cd576101008083540402835291602001916109f8565b820191906000526020600020905b8154815290600101906020018083116109db57829003601f168201915b5050505050905090565b610a0a610fe7565b73ffffffffffffffffffffffffffffffffffffffff168273ffffffffffffffffffffffffffffffffffffffff161415610a78576040517f08c379a0000000000000000000000000000000000000000000000000000000008152600401610a6f90612e68565b60405180910390fd5b8060056000610a85610fe7565b73ffffffffffffffffffffffffffffffffffffffff1673ffffffffffffffffffffffffffffffffffffffff16815260200190815260200160002060008473ffffffffffffffffffffffffffffffffffffffff1673ffffffffffffffffffffffffffffffffffffffff16815260200190815260200160002060006101000a81548160ff0219169083151502179055508173ffffffffffffffffffffffffffffffffffffffff16610b32610fe7565b73ffffffffffffffffffffffffffffffffffffffff167f17307eab39ab6107e8899845ad3d59bd9653f200f220920489ca2b5937696c3183604051610b779190612d90565b60405180910390a35050565b610b94610b8e610fe7565b836110bd565b610bd3576040517f08c379a0000000000000000000000000000000000000000000000000000000008152600401610bca90613028565b60405180910390fd5b610bdf8484848461142f565b50505050565b600a60009054906101000a900473ffffffffffffffffffffffffffffffffffffffff1681565b6060610c1682610fca565b610c55576040517f08c379a0000000000000000000000000000000000000000000000000000000008152600401610c4c90612fe8565b60405180910390fd5b6060600860008481526020019081526020016000208054600181600116156101000203166002900480601f016020809104026020016040519081016040528092919081815260200182805460018160011615610100020316600290048015610cfe5780601f10610cd357610100808354040283529160200191610cfe565b820191906000526020600020905b815481529060010190602001808311610ce157829003601f168201915b505050505090506060610d0f6107f9565b9050600081511415610d25578192505050610d89565b600082511115610d5a578082604051602001610d42929190612d05565b60405160208183030381529060405292505050610d89565b80610d648561148b565b604051602001610d75929190612d05565b604051602081830303815290604052925050505b919050565b6000600a60009054906101000a900473ffffffffffffffffffffffffffffffffffffffff1673ffffffffffffffffffffffffffffffffffffffff166301f8e60b856040518263ffffffff1660e01b8152600401610deb9190612d29565b60206040518083038186803b158015610e0357600080fd5b505afa158015610e17573d6000803e3d6000fd5b505050506040513d601f19601f82011682018060405250810190610e3b9190612446565b1415610e7c576040517f08c379a0000000000000000000000000000000000000000000000000000000008152600401610e7390612e88565b60405180910390fd5b6000610e878461089b565b14610ec7576040517f08c379a0000000000000000000000000000000000000000000000000000000008152600401610ebe90612ee8565b60405180910390fd5b610ed383600b546115d2565b610f3182828080601f016020809104026020016040519081016040528093929190818152602001838380828437600081840152601f19601f82011690508083019250505050505050600b6000815480929190600101919050556115f0565b505050565b6000600560008473ffffffffffffffffffffffffffffffffffffffff1673ffffffffffffffffffffffffffffffffffffffff16815260200190815260200160002060008373ffffffffffffffffffffffffffffffffffffffff1673ffffffffffffffffffffffffffffffffffffffff16815260200190815260200160002060009054906101000a900460ff16905092915050565b6000610fe08260026115fe90919063ffffffff16565b9050919050565b600033905090565b816004600083815260200190815260200160002060006101000a81548173ffffffffffffffffffffffffffffffffffffffff021916908373ffffffffffffffffffffffffffffffffffffffff160217905550808273ffffffffffffffffffffffffffffffffffffffff16611062836107c2565b73ffffffffffffffffffffffffffffffffffffffff167f8c5be1e5ebec7d5bd14f71427d1e84f3dd0314c0f7b2291e5b200ac8c7c3b92560405160405180910390a45050565b60006110b682600001611618565b9050919050565b60006110c882610fca565b611107576040517f08c379a00000000000000000000000000000000000000000000000000000000081526004016110fe90612ec8565b60405180910390fd5b6000611112836107c2565b90508073ffffffffffffffffffffffffffffffffffffffff168473ffffffffffffffffffffffffffffffffffffffff16148061118157508373ffffffffffffffffffffffffffffffffffffffff1661116984610516565b73ffffffffffffffffffffffffffffffffffffffff16145b8061119257506111918185610f36565b5b91505092915050565b8273ffffffffffffffffffffffffffffffffffffffff166111bb826107c2565b73ffffffffffffffffffffffffffffffffffffffff1614611211576040517f08c379a000000000000000000000000000000000000000000000000000000000815260040161120890612fc8565b60405180910390fd5b600073ffffffffffffffffffffffffffffffffffffffff168273ffffffffffffffffffffffffffffffffffffffff161415611281576040517f08c379a000000000000000000000000000000000000000000000000000000000815260040161127890612e48565b60405180910390fd5b61128c838383611629565b611297600082610fef565b6112e881600160008673ffffffffffffffffffffffffffffffffffffffff1673ffffffffffffffffffffffffffffffffffffffff16815260200190815260200160002061162e90919063ffffffff16565b5061133a81600160008573ffffffffffffffffffffffffffffffffffffffff1673ffffffffffffffffffffffffffffffffffffffff16815260200190815260200160002061164890919063ffffffff16565b50611351818360026116629092919063ffffffff16565b50808273ffffffffffffffffffffffffffffffffffffffff168473ffffffffffffffffffffffffffffffffffffffff167fddf252ad1be2c89b69c2b068fc378daa952ba7f163c4a11628f55a4df523b3ef60405160405180910390a4505050565b60006113c18360000183611697565b60001c905092915050565b6000806000806113df8660000186611704565b915091508160001c8160001c8090509350935050509250929050565b600061140e846000018460001b84611787565b60001c90509392505050565b600061142882600001611818565b9050919050565b61143a84848461119b565b61144684848484611829565b611485576040517f08c379a000000000000000000000000000000000000000000000000000000000815260040161147c90612e08565b60405180910390fd5b50505050565b606060008214156114d3576040518060400160405280600181526020017f300000000000000000000000000000000000000000000000000000000000000081525090506115cd565b600082905060005b600082146114fd578080600101915050600a82816114f557fe5b0491506114db565b60608167ffffffffffffffff8111801561151657600080fd5b506040519080825280601f01601f1916602001820160405280156115495781602001600182028036833780820191505090505b50905060006001830390508593505b600084146115c557600a848161156a57fe5b0660300160f81b8282806001900393508151811061158457fe5b60200101907effffffffffffffffffffffffffffffffffffffffffffffffffffffffffffff1916908160001a905350600a84816115bd57fe5b049350611558565b819450505050505b919050565b6115ec82826040518060200160405280600081525061198d565b5050565b6115fa81836119e8565b5050565b6000611610836000018360001b611a5c565b905092915050565b600081600001805490509050919050565b505050565b6000611640836000018360001b611a7f565b905092915050565b600061165a836000018360001b611b67565b905092915050565b600061168e846000018460001b8473ffffffffffffffffffffffffffffffffffffffff1660001b611bd7565b90509392505050565b6000818360000180549050116116e2576040517f08c379a00000000000000000000000000000000000000000000000000000000081526004016116d990612de8565b60405180910390fd5b8260000182815481106116f157fe5b9060005260206000200154905092915050565b60008082846000018054905011611750576040517f08c379a000000000000000000000000000000000000000000000000000000000815260040161174790612f48565b60405180910390fd5b600084600001848154811061176157fe5b906000526020600020906002020190508060000154816001015492509250509250929050565b600080846001016000858152602001908152602001600020549050600081141583906117e9576040517f08c379a00000000000000000000000000000000000000000000000000000000081526004016117e09190612dc6565b60405180910390fd5b508460000160018203815481106117fc57fe5b9060005260206000209060020201600101549150509392505050565b600081600001805490509050919050565b600061184a8473ffffffffffffffffffffffffffffffffffffffff16611cb3565b6118575760019050611985565b606061191e63150b7a0260e01b61186c610fe7565b8887876040516024016118829493929190612d44565b604051602081830303815290604052907bffffffffffffffffffffffffffffffffffffffffffffffffffffffff19166020820180517bffffffffffffffffffffffffffffffffffffffffffffffffffffffff8381831617835250505050604051806060016040528060328152602001613284603291398773ffffffffffffffffffffffffffffffffffffffff16611cc69092919063ffffffff16565b905060008180602001905181019061193691906123f4565b905063150b7a0260e01b7bffffffffffffffffffffffffffffffffffffffffffffffffffffffff1916817bffffffffffffffffffffffffffffffffffffffffffffffffffffffff191614925050505b949350505050565b6119978383611cde565b6119a46000848484611829565b6119e3576040517f08c379a00000000000000000000000000000000000000000000000000000000081526004016119da90612e08565b60405180910390fd5b505050565b6119f182610fca565b611a30576040517f08c379a0000000000000000000000000000000000000000000000000000000008152600401611a2790612fa8565b60405180910390fd5b80600860008481526020019081526020016000209080519060200190611a5792919061200b565b505050565b600080836001016000848152602001908152602001600020541415905092915050565b60008083600101600084815260200190815260200160002054905060008114611b5b5760006001820390506000600186600001805490500390506000866000018281548110611aca57fe5b9060005260206000200154905080876000018481548110611ae757fe5b9060005260206000200181905550600183018760010160008381526020019081526020016000208190555086600001805480611b1f57fe5b60019003818190600052602060002001600090559055866001016000878152602001908152602001600020600090556001945050505050611b61565b60009150505b92915050565b6000611b738383611e6c565b611bcc578260000182908060018154018082558091505060019003906000526020600020016000909190919091505582600001805490508360010160008481526020019081526020016000208190555060019050611bd1565b600090505b92915050565b6000808460010160008581526020019081526020016000205490506000811415611c7e57846000016040518060400160405280868152602001858152509080600181540180825580915050600190039060005260206000209060020201600090919091909150600082015181600001556020820151816001015550508460000180549050856001016000868152602001908152602001600020819055506001915050611cac565b82856000016001830381548110611c9157fe5b90600052602060002090600202016001018190555060009150505b9392505050565b600080823b905060008111915050919050565b6060611cd58484600085611e8f565b90509392505050565b600073ffffffffffffffffffffffffffffffffffffffff168273ffffffffffffffffffffffffffffffffffffffff161415611d4e576040517f08c379a0000000000000000000000000000000000000000000000000000000008152600401611d4590612f68565b60405180910390fd5b611d5781610fca565b15611d97576040517f08c379a0000000000000000000000000000000000000000000000000000000008152600401611d8e90612e28565b60405180910390fd5b611da360008383611629565b611df481600160008573ffffffffffffffffffffffffffffffffffffffff1673ffffffffffffffffffffffffffffffffffffffff16815260200190815260200160002061164890919063ffffffff16565b50611e0b818360026116629092919063ffffffff16565b50808273ffffffffffffffffffffffffffffffffffffffff16600073ffffffffffffffffffffffffffffffffffffffff167fddf252ad1be2c89b69c2b068fc378daa952ba7f163c4a11628f55a4df523b3ef60405160405180910390a45050565b600080836001016000848152602001908152602001600020541415905092915050565b606082471015611ed4576040517f08c379a0000000000000000000000000000000000000000000000000000000008152600401611ecb90612ea8565b60405180910390fd5b611edd85611cb3565b611f1c576040517f08c379a0000000000000000000000000000000000000000000000000000000008152600401611f1390613048565b60405180910390fd5b600060608673ffffffffffffffffffffffffffffffffffffffff168587604051611f469190612cee565b60006040518083038185875af1925050503d8060008114611f83576040519150601f19603f3d011682016040523d82523d6000602084013e611f88565b606091505b5091509150611f98828286611fa4565b92505050949350505050565b60608315611fb457829050612004565b600083511115611fc75782518084602001fd5b816040517f08c379a0000000000000000000000000000000000000000000000000000000008152600401611ffb9190612dc6565b60405180910390fd5b9392505050565b828054600181600116156101000203166002900490600052602060002090601f016020900481019282601f1061204c57805160ff191683800117855561207a565b8280016001018555821561207a579182015b8281111561207957825182559160200191906001019061205e565b5b509050612087919061208b565b5090565b6120ad91905b808211156120a9576000816000905550600101612091565b5090565b90565b6000813590506120bf81613227565b92915050565b6000813590506120d48161323e565b92915050565b6000813590506120e981613255565b92915050565b6000815190506120fe81613255565b92915050565b600082601f83011261211557600080fd5b8135612128612123826130b0565b613083565b9150808252602083016020830185838301111561214457600080fd5b61214f8382846131d4565b50505092915050565b60008083601f84011261216a57600080fd5b8235905067ffffffffffffffff81111561218357600080fd5b60208301915083600182028301111561219b57600080fd5b9250929050565b6000813590506121b18161326c565b92915050565b6000815190506121c68161326c565b92915050565b6000602082840312156121de57600080fd5b60006121ec848285016120b0565b91505092915050565b6000806040838503121561220857600080fd5b6000612216858286016120b0565b9250506020612227858286016120b0565b9150509250929050565b60008060006060848603121561224657600080fd5b6000612254868287016120b0565b9350506020612265868287016120b0565b9250506040612276868287016121a2565b9150509250925092565b6000806000806080858703121561229657600080fd5b60006122a4878288016120b0565b94505060206122b5878288016120b0565b93505060406122c6878288016121a2565b925050606085013567ffffffffffffffff8111156122e357600080fd5b6122ef87828801612104565b91505092959194509250565b6000806040838503121561230e57600080fd5b600061231c858286016120b0565b925050602061232d858286016120c5565b9150509250929050565b60008060006040848603121561234c57600080fd5b600061235a868287016120b0565b935050602084013567ffffffffffffffff81111561237757600080fd5b61238386828701612158565b92509250509250925092565b600080604083850312156123a257600080fd5b60006123b0858286016120b0565b92505060206123c1858286016121a2565b9150509250929050565b6000602082840312156123dd57600080fd5b60006123eb848285016120da565b91505092915050565b60006020828403121561240657600080fd5b6000612414848285016120ef565b91505092915050565b60006020828403121561242f57600080fd5b600061243d848285016121a2565b91505092915050565b60006020828403121561245857600080fd5b6000612466848285016121b7565b91505092915050565b6124788161313c565b82525050565b6124878161312a565b82525050565b6124968161314e565b82525050565b60006124a7826130dc565b6124b181856130f2565b93506124c18185602086016131e3565b6124ca81613216565b840191505092915050565b60006124e0826130dc565b6124ea8185613103565b93506124fa8185602086016131e3565b80840191505092915050565b61250f816131b0565b82525050565b6000612520826130e7565b61252a818561310e565b935061253a8185602086016131e3565b61254381613216565b840191505092915050565b6000612559826130e7565b612563818561311f565b93506125738185602086016131e3565b80840191505092915050565b600061258c60228361310e565b91507f456e756d657261626c655365743a20696e646578206f7574206f6620626f756e60008301527f64730000000000000000000000000000000000000000000000000000000000006020830152604082019050919050565b60006125f260328361310e565b91507f4552433732313a207472616e7366657220746f206e6f6e20455243373231526560008301527f63656976657220696d706c656d656e74657200000000000000000000000000006020830152604082019050919050565b6000612658601c8361310e565b91507f4552433732313a20746f6b656e20616c7265616479206d696e746564000000006000830152602082019050919050565b600061269860248361310e565b91507f4552433732313a207472616e7366657220746f20746865207a65726f2061646460008301527f72657373000000000000000000000000000000000000000000000000000000006020830152604082019050919050565b60006126fe60198361310e565b91507f4552433732313a20617070726f766520746f2063616c6c6572000000000000006000830152602082019050919050565b600061273e60328361310e565b91507f537570706f72744368696c6472656e4e46543a3a6d696e743a2055736572206860008301527f6173206e6f7420646f6e617465642079657400000000000000000000000000006020830152604082019050919050565b60006127a460268361310e565b91507f416464726573733a20696e73756666696369656e742062616c616e636520666f60008301527f722063616c6c00000000000000000000000000000000000000000000000000006020830152604082019050919050565b600061280a602c8361310e565b91507f4552433732313a206f70657261746f7220717565727920666f72206e6f6e657860008301527f697374656e7420746f6b656e00000000000000000000000000000000000000006020830152604082019050919050565b6000612870603d8361310e565b91507f537570706f72744368696c6472656e4e46543a3a6d696e743a2055736572206860008301527f617320616c7265616479206d696e74656420746865697220746f6b656e0000006020830152604082019050919050565b60006128d660388361310e565b91507f4552433732313a20617070726f76652063616c6c6572206973206e6f74206f7760008301527f6e6572206e6f7220617070726f76656420666f7220616c6c00000000000000006020830152604082019050919050565b600061293c602a8361310e565b91507f4552433732313a2062616c616e636520717565727920666f7220746865207a6560008301527f726f2061646472657373000000000000000000000000000000000000000000006020830152604082019050919050565b60006129a260228361310e565b91507f456e756d657261626c654d61703a20696e646578206f7574206f6620626f756e60008301527f64730000000000000000000000000000000000000000000000000000000000006020830152604082019050919050565b6000612a0860208361310e565b91507f4552433732313a206d696e7420746f20746865207a65726f20616464726573736000830152602082019050919050565b6000612a48602c8361310e565b91507f4552433732313a20617070726f76656420717565727920666f72206e6f6e657860008301527f697374656e7420746f6b656e00000000000000000000000000000000000000006020830152604082019050919050565b6000612aae602c8361310e565b91507f4552433732314d657461646174613a2055524920736574206f66206e6f6e657860008301527f697374656e7420746f6b656e00000000000000000000000000000000000000006020830152604082019050919050565b6000612b1460298361310e565b91507f4552433732313a207472616e73666572206f6620746f6b656e2074686174206960008301527f73206e6f74206f776e00000000000000000000000000000000000000000000006020830152604082019050919050565b6000612b7a602f8361310e565b91507f4552433732314d657461646174613a2055524920717565727920666f72206e6f60008301527f6e6578697374656e7420746f6b656e00000000000000000000000000000000006020830152604082019050919050565b6000612be060218361310e565b91507f4552433732313a20617070726f76616c20746f2063757272656e74206f776e6560008301527f72000000000000000000000000000000000000000000000000000000000000006020830152604082019050919050565b6000612c4660318361310e565b91507f4552433732313a207472616e736665722063616c6c6572206973206e6f74206f60008301527f776e6572206e6f7220617070726f7665640000000000000000000000000000006020830152604082019050919050565b6000612cac601d8361310e565b91507f416464726573733a2063616c6c20746f206e6f6e2d636f6e74726163740000006000830152602082019050919050565b612ce8816131a6565b82525050565b6000612cfa82846124d5565b915081905092915050565b6000612d11828561254e565b9150612d1d828461254e565b91508190509392505050565b6000602082019050612d3e600083018461247e565b92915050565b6000608082019050612d59600083018761246f565b612d66602083018661247e565b612d736040830185612cdf565b8181036060830152612d85818461249c565b905095945050505050565b6000602082019050612da5600083018461248d565b92915050565b6000602082019050612dc06000830184612506565b92915050565b60006020820190508181036000830152612de08184612515565b905092915050565b60006020820190508181036000830152612e018161257f565b9050919050565b60006020820190508181036000830152612e21816125e5565b9050919050565b60006020820190508181036000830152612e418161264b565b9050919050565b60006020820190508181036000830152612e618161268b565b9050919050565b60006020820190508181036000830152612e81816126f1565b9050919050565b60006020820190508181036000830152612ea181612731565b9050919050565b60006020820190508181036000830152612ec181612797565b9050919050565b60006020820190508181036000830152612ee1816127fd565b9050919050565b60006020820190508181036000830152612f0181612863565b9050919050565b60006020820190508181036000830152612f21816128c9565b9050919050565b60006020820190508181036000830152612f418161292f565b9050919050565b60006020820190508181036000830152612f6181612995565b9050919050565b60006020820190508181036000830152612f81816129fb565b9050919050565b60006020820190508181036000830152612fa181612a3b565b9050919050565b60006020820190508181036000830152612fc181612aa1565b9050919050565b60006020820190508181036000830152612fe181612b07565b9050919050565b6000602082019050818103600083015261300181612b6d565b9050919050565b6000602082019050818103600083015261302181612bd3565b9050919050565b6000602082019050818103600083015261304181612c39565b9050919050565b6000602082019050818103600083015261306181612c9f565b9050919050565b600060208201905061307d6000830184612cdf565b92915050565b6000604051905081810181811067ffffffffffffffff821117156130a657600080fd5b8060405250919050565b600067ffffffffffffffff8211156130c757600080fd5b601f19601f8301169050602081019050919050565b600081519050919050565b600081519050919050565b600082825260208201905092915050565b600081905092915050565b600082825260208201905092915050565b600081905092915050565b600061313582613186565b9050919050565b600061314782613186565b9050919050565b60008115159050919050565b60007fffffffff0000000000000000000000000000000000000000000000000000000082169050919050565b600073ffffffffffffffffffffffffffffffffffffffff82169050919050565b6000819050919050565b60006131bb826131c2565b9050919050565b60006131cd82613186565b9050919050565b82818337600083830152505050565b60005b838110156132015780820151818401526020810190506131e6565b83811115613210576000848401525b50505050565b6000601f19601f8301169050919050565b6132308161312a565b811461323b57600080fd5b50565b6132478161314e565b811461325257600080fd5b50565b61325e8161315a565b811461326957600080fd5b50565b613275816131a6565b811461328057600080fd5b5056fe4552433732313a207472616e7366657220746f206e6f6e20455243373231526563656976657220696d706c656d656e7465724552433732313a206f776e657220717565727920666f72206e6f6e6578697374656e7420746f6b656ea2646970667358221220163a4236d95eae23253c09513967986a08d8edfc53a535059c7b07e6448125d364736f6c63430006060033",
  "immutableReferences": {},
  "source": "pragma solidity >= 0.6.0 <= 0.8.0;\r\npragma experimental ABIEncoderV2;\r\n\r\nimport \"@openzeppelin/contracts/access/Ownable.sol\";\r\nimport \"@openzeppelin/contracts/token/ERC721/ERC721.sol\";\r\nimport \"./SupportChildren.sol\";\r\nimport \"./interfaces/ISupportChildrenNFT.sol\";\r\nimport \"./interfaces/ISupportChildren.sol\";\r\n\r\ncontract SupportChildrenNFT is ISupportChildrenNFT, ERC721 {\r\n\r\n    SupportChildren public supportChildren;\r\n    uint256 public nextTokenId = 1;\r\n\r\n    constructor (SupportChildren _supportChildren) public ERC721(\"SupportChildren NFT\", \"SPCHNFT\") {\r\n        supportChildren = _supportChildren;\r\n    }\r\n\r\n    function mint(address to, string calldata receipt) override external {\r\n\r\n        require(supportChildren.donorsFirstCampaign(to) != 0, \"SupportChildrenNFT::mint: User has not donated yet\");\r\n        require(balanceOf(to) == 0, \"SupportChildrenNFT::mint: User has already minted their token\");\r\n    \r\n        _safeMint(to, nextTokenId);\r\n        // _setNFTUri(supportChildren.donorsFirstCampaign, nextTokenId++);\r\n        _setNFTUri(receipt, nextTokenId++);\r\n\r\n    }\r\n\r\n    function _setNFTUri(string memory receipt, uint256 _tokenId) internal {            \r\n        // ISupportChildren.Campaign memory campaign = supportChildren.getCampaign(_campaignId);\r\n        _setTokenURI(_tokenId, receipt);\r\n    }\r\n\r\n}",
  "sourcePath": "C:/Users/Luka/Desktop/SupportChildrenV2.0/client/src/contracts/SupportChildrenNFT.sol",
  "compiler": {
    "name": "solc",
    "version": "0.6.6+commit.6c089d02.Emscripten.clang"
  },
  "schemaVersion": "3.4.1",
  "updatedAt": "2021-09-07T00:48:21.641Z",
  "networkType": "ethereum",
  "devdoc": {
    "methods": {
      "approve(address,uint256)": {
        "details": "See {IERC721-approve}."
      },
      "balanceOf(address)": {
        "details": "See {IERC721-balanceOf}."
      },
      "baseURI()": {
        "details": "Returns the base URI set via {_setBaseURI}. This will be automatically added as a prefix in {tokenURI} to each token's URI, or to the token ID if no specific URI is set for that token ID."
      },
      "getApproved(uint256)": {
        "details": "See {IERC721-getApproved}."
      },
      "isApprovedForAll(address,address)": {
        "details": "See {IERC721-isApprovedForAll}."
      },
      "name()": {
        "details": "See {IERC721Metadata-name}."
      },
      "ownerOf(uint256)": {
        "details": "See {IERC721-ownerOf}."
      },
      "safeTransferFrom(address,address,uint256)": {
        "details": "See {IERC721-safeTransferFrom}."
      },
      "safeTransferFrom(address,address,uint256,bytes)": {
        "details": "See {IERC721-safeTransferFrom}."
      },
      "setApprovalForAll(address,bool)": {
        "details": "See {IERC721-setApprovalForAll}."
      },
      "supportsInterface(bytes4)": {
        "details": "See {IERC165-supportsInterface}.     * Time complexity O(1), guaranteed to always use less than 30 000 gas."
      },
      "symbol()": {
        "details": "See {IERC721Metadata-symbol}."
      },
      "tokenByIndex(uint256)": {
        "details": "See {IERC721Enumerable-tokenByIndex}."
      },
      "tokenOfOwnerByIndex(address,uint256)": {
        "details": "See {IERC721Enumerable-tokenOfOwnerByIndex}."
      },
      "tokenURI(uint256)": {
        "details": "See {IERC721Metadata-tokenURI}."
      },
      "totalSupply()": {
        "details": "See {IERC721Enumerable-totalSupply}."
      },
      "transferFrom(address,address,uint256)": {
        "details": "See {IERC721-transferFrom}."
      }
    }
  },
  "userdoc": {
    "methods": {}
  }
}