{
  "contractName": "Swap",
  "abi": [
    {
      "inputs": [],
      "name": "WETH",
      "outputs": [
        {
          "internalType": "address",
          "name": "",
          "type": "address"
        }
      ],
      "stateMutability": "view",
      "type": "function",
      "constant": true
    },
    {
      "stateMutability": "payable",
      "type": "receive",
      "payable": true
    },
    {
      "inputs": [
        {
          "internalType": "address",
          "name": "_tokenIn",
          "type": "address"
        },
        {
          "internalType": "address",
          "name": "_tokenOut",
          "type": "address"
        },
        {
          "internalType": "uint256",
          "name": "_amountIn",
          "type": "uint256"
        },
        {
          "internalType": "uint256",
          "name": "_amountOutMin",
          "type": "uint256"
        },
        {
          "internalType": "address",
          "name": "_to",
          "type": "address"
        },
        {
          "internalType": "bool",
          "name": "isEth",
          "type": "bool"
        }
      ],
      "name": "swap",
      "outputs": [],
      "stateMutability": "payable",
      "type": "function",
      "payable": true
    },
    {
      "inputs": [
        {
          "internalType": "address",
          "name": "_tokenIn",
          "type": "address"
        },
        {
          "internalType": "address",
          "name": "_tokenOut",
          "type": "address"
        },
        {
          "internalType": "uint256",
          "name": "_amountIn",
          "type": "uint256"
        }
      ],
      "name": "getAmountOutMin",
      "outputs": [
        {
          "internalType": "uint256",
          "name": "",
          "type": "uint256"
        }
      ],
      "stateMutability": "view",
      "type": "function",
      "constant": true
    }
  ],
  "bytecode": "0x608060405234801561001057600080fd5b5061108a806100206000396000f3fe6080604052600436106100385760003560e01c80633c50eec1146100445780635f8a1d6414610081578063ad5c46481461009d5761003f565b3661003f57005b600080fd5b34801561005057600080fd5b5061006b60048036038101906100669190610ac8565b6100c8565b6040516100789190610d4b565b60405180910390f35b61009b60048036038101906100969190610b1b565b610413565b005b3480156100a957600080fd5b506100b26109a9565b6040516100bf9190610cd0565b60405180910390f35b6000606073c02aaa39b223fe8d0a0e5c4f27ead9083c756cc273ffffffffffffffffffffffffffffffffffffffff168573ffffffffffffffffffffffffffffffffffffffff161480610159575073c02aaa39b223fe8d0a0e5c4f27ead9083c756cc273ffffffffffffffffffffffffffffffffffffffff168473ffffffffffffffffffffffffffffffffffffffff16145b1561024d57600267ffffffffffffffff81111561017957610178610fbb565b5b6040519080825280602002602001820160405280156101a75781602001602082028036833780820191505090505b50905084816000815181106101bf576101be610f8c565b5b602002602001019073ffffffffffffffffffffffffffffffffffffffff16908173ffffffffffffffffffffffffffffffffffffffff1681525050838160018151811061020e5761020d610f8c565b5b602002602001019073ffffffffffffffffffffffffffffffffffffffff16908173ffffffffffffffffffffffffffffffffffffffff1681525050610338565b600267ffffffffffffffff81111561026857610267610fbb565b5b6040519080825280602002602001820160405280156102965781602001602082028036833780820191505090505b50905084816000815181106102ae576102ad610f8c565b5b602002602001019073ffffffffffffffffffffffffffffffffffffffff16908173ffffffffffffffffffffffffffffffffffffffff168152505083816001815181106102fd576102fc610f8c565b5b602002602001019073ffffffffffffffffffffffffffffffffffffffff16908173ffffffffffffffffffffffffffffffffffffffff16815250505b6000737a250d5630b4cf539739df2c5dacb4c659f2488d73ffffffffffffffffffffffffffffffffffffffff1663d06ca61f85846040518363ffffffff1660e01b8152600401610389929190610d66565b60006040518083038186803b1580156103a157600080fd5b505afa1580156103b5573d6000803e3d6000fd5b505050506040513d6000823e3d601f19601f820116820180604052508101906103de9190610ba8565b905080600183516103ef9190610e7a565b81518110610400576103ff610f8c565b5b6020026020010151925050509392505050565b8573ffffffffffffffffffffffffffffffffffffffff166323b872dd3330876040518463ffffffff1660e01b815260040161045093929190610ceb565b602060405180830381600087803b15801561046a57600080fd5b505af115801561047e573d6000803e3d6000fd5b505050506040513d601f19601f820116820180604052508101906104a29190610bf1565b508573ffffffffffffffffffffffffffffffffffffffff1663095ea7b3737a250d5630b4cf539739df2c5dacb4c659f2488d866040518363ffffffff1660e01b81526004016104f2929190610d22565b602060405180830381600087803b15801561050c57600080fd5b505af1158015610520573d6000803e3d6000fd5b505050506040513d601f19601f820116820180604052508101906105449190610bf1565b50606073c02aaa39b223fe8d0a0e5c4f27ead9083c756cc273ffffffffffffffffffffffffffffffffffffffff168773ffffffffffffffffffffffffffffffffffffffff1614806105d4575073c02aaa39b223fe8d0a0e5c4f27ead9083c756cc273ffffffffffffffffffffffffffffffffffffffff168673ffffffffffffffffffffffffffffffffffffffff16145b1561080857600267ffffffffffffffff8111156105f4576105f3610fbb565b5b6040519080825280602002602001820160405280156106225781602001602082028036833780820191505090505b509050868160008151811061063a57610639610f8c565b5b602002602001019073ffffffffffffffffffffffffffffffffffffffff16908173ffffffffffffffffffffffffffffffffffffffff1681525050858160018151811061068957610688610f8c565b5b602002602001019073ffffffffffffffffffffffffffffffffffffffff16908173ffffffffffffffffffffffffffffffffffffffff1681525050811561075557737a250d5630b4cf539739df2c5dacb4c659f2488d73ffffffffffffffffffffffffffffffffffffffff1663791ac94786868487426040518663ffffffff1660e01b815260040161071e959493929190610d96565b600060405180830381600087803b15801561073857600080fd5b505af115801561074c573d6000803e3d6000fd5b50505050610803565b737a250d5630b4cf539739df2c5dacb4c659f2488d73ffffffffffffffffffffffffffffffffffffffff166338ed173986868487426040518663ffffffff1660e01b81526004016107aa959493929190610d96565b600060405180830381600087803b1580156107c457600080fd5b505af11580156107d8573d6000803e3d6000fd5b505050506040513d6000823e3d601f19601f820116820180604052508101906108019190610ba8565b505b6109a0565b600267ffffffffffffffff81111561082357610822610fbb565b5b6040519080825280602002602001820160405280156108515781602001602082028036833780820191505090505b509050868160008151811061086957610868610f8c565b5b602002602001019073ffffffffffffffffffffffffffffffffffffffff16908173ffffffffffffffffffffffffffffffffffffffff168152505085816001815181106108b8576108b7610f8c565b5b602002602001019073ffffffffffffffffffffffffffffffffffffffff16908173ffffffffffffffffffffffffffffffffffffffff1681525050737a250d5630b4cf539739df2c5dacb4c659f2488d73ffffffffffffffffffffffffffffffffffffffff166338ed173986868487426040518663ffffffff1660e01b8152600401610947959493929190610d96565b600060405180830381600087803b15801561096157600080fd5b505af1158015610975573d6000803e3d6000fd5b505050506040513d6000823e3d601f19601f8201168201806040525081019061099e9190610ba8565b505b50505050505050565b73c02aaa39b223fe8d0a0e5c4f27ead9083c756cc281565b60006109d46109cf84610e15565b610df0565b905080838252602082019050828560208602820111156109f7576109f6610fef565b5b60005b85811015610a275781610a0d8882610ab3565b8452602084019350602083019250506001810190506109fa565b5050509392505050565b600081359050610a408161100f565b92915050565b600082601f830112610a5b57610a5a610fea565b5b8151610a6b8482602086016109c1565b91505092915050565b600081359050610a8381611026565b92915050565b600081519050610a9881611026565b92915050565b600081359050610aad8161103d565b92915050565b600081519050610ac28161103d565b92915050565b600080600060608486031215610ae157610ae0610ff9565b5b6000610aef86828701610a31565b9350506020610b0086828701610a31565b9250506040610b1186828701610a9e565b9150509250925092565b60008060008060008060c08789031215610b3857610b37610ff9565b5b6000610b4689828a01610a31565b9650506020610b5789828a01610a31565b9550506040610b6889828a01610a9e565b9450506060610b7989828a01610a9e565b9350506080610b8a89828a01610a31565b92505060a0610b9b89828a01610a74565b9150509295509295509295565b600060208284031215610bbe57610bbd610ff9565b5b600082015167ffffffffffffffff811115610bdc57610bdb610ff4565b5b610be884828501610a46565b91505092915050565b600060208284031215610c0757610c06610ff9565b5b6000610c1584828501610a89565b91505092915050565b6000610c2a8383610c45565b60208301905092915050565b610c3f81610ef6565b82525050565b610c4e81610eae565b82525050565b610c5d81610eae565b82525050565b6000610c6e82610e51565b610c788185610e69565b9350610c8383610e41565b8060005b83811015610cb4578151610c9b8882610c1e565b9750610ca683610e5c565b925050600181019050610c87565b5085935050505092915050565b610cca81610eec565b82525050565b6000602082019050610ce56000830184610c54565b92915050565b6000606082019050610d006000830186610c54565b610d0d6020830185610c54565b610d1a6040830184610cc1565b949350505050565b6000604082019050610d376000830185610c54565b610d446020830184610cc1565b9392505050565b6000602082019050610d606000830184610cc1565b92915050565b6000604082019050610d7b6000830185610cc1565b8181036020830152610d8d8184610c63565b90509392505050565b600060a082019050610dab6000830188610cc1565b610db86020830187610cc1565b8181036040830152610dca8186610c63565b9050610dd96060830185610c36565b610de66080830184610cc1565b9695505050505050565b6000610dfa610e0b565b9050610e068282610f2c565b919050565b6000604051905090565b600067ffffffffffffffff821115610e3057610e2f610fbb565b5b602082029050602081019050919050565b6000819050602082019050919050565b600081519050919050565b6000602082019050919050565b600082825260208201905092915050565b6000610e8582610eec565b9150610e9083610eec565b925082821015610ea357610ea2610f5d565b5b828203905092915050565b6000610eb982610ecc565b9050919050565b60008115159050919050565b600073ffffffffffffffffffffffffffffffffffffffff82169050919050565b6000819050919050565b6000610f0182610f08565b9050919050565b6000610f1382610f1a565b9050919050565b6000610f2582610ecc565b9050919050565b610f3582610ffe565b810181811067ffffffffffffffff82111715610f5457610f53610fbb565b5b80604052505050565b7f4e487b7100000000000000000000000000000000000000000000000000000000600052601160045260246000fd5b7f4e487b7100000000000000000000000000000000000000000000000000000000600052603260045260246000fd5b7f4e487b7100000000000000000000000000000000000000000000000000000000600052604160045260246000fd5b600080fd5b600080fd5b600080fd5b600080fd5b6000601f19601f8301169050919050565b61101881610eae565b811461102357600080fd5b50565b61102f81610ec0565b811461103a57600080fd5b50565b61104681610eec565b811461105157600080fd5b5056fea264697066735822122052404008bd14451a81fd1108e576c7e7554e5cb3ac9e2840e04c3e92b9762d1964736f6c63430008070033",
  "immutableReferences": {},
  "source": "// SPDX-License-Identifier: MIT\r\npragma solidity ^0.8.0;\r\n\r\n\r\nimport \"@openzeppelin/contracts/token/ERC20/utils/SafeERC20.sol\";\r\nimport \"./interfaces/IUniswapV2Router.sol\";\r\n\r\ncontract Swap {\r\n\r\n    using SafeERC20 for IERC20;\r\n    \r\n    //address of the uniswap v2 router\r\n    address private constant UNISWAP_V2_ROUTER = 0x7a250d5630B4cF539739dF2C5dAcb4c659F2488D;\r\n    \r\n    //address of WETH token.  This is needed because some times it is better to trade through WETH.  \r\n\r\n    address public constant WETH = 0xC02aaA39b223FE8D0A0e5C4F27eAD9083C756Cc2;\r\n    \r\n\r\n    //this swap function is used to trade from one token to another\r\n   function swap(address _tokenIn, address _tokenOut, uint256 _amountIn, uint256 _amountOutMin, address _to, bool isEth) external payable {\r\n      \r\n    //first we need to transfer the amount in tokens from the msg.sender to this contract\r\n    //this contract will have the amount of in tokens\r\n    IERC20(_tokenIn).transferFrom(msg.sender, address(this), _amountIn);\r\n    \r\n    //next we need to allow the uniswapv2 router to spend the token we just sent to this contract\r\n    //by calling IERC20 approve you allow the uniswap contract to spend the tokens in this contract \r\n    \r\n    IERC20(_tokenIn).approve(UNISWAP_V2_ROUTER, _amountIn);\r\n    \r\n    //path is an array of addresses.\r\n    //this path array will have 3 addresses [tokenIn, WETH, tokenOut]\r\n    //the if statement below takes into account if token in or token out is WETH.  then the path is only 2 addresses\r\n    address[] memory path;\r\n    if (_tokenIn == WETH || _tokenOut == WETH) {\r\n      path = new address[](2);\r\n      path[0] = _tokenIn;\r\n      path[1] = _tokenOut;\r\n      // if goal is in eth\r\n      if(isEth){\r\n          IUniswapV2Router(UNISWAP_V2_ROUTER).swapExactTokensForETHSupportingFeeOnTransferTokens(_amountIn, _amountOutMin, path, payable(_to), block.timestamp);\r\n      }\r\n       // if goal is in dai\r\n       \r\n      else{\r\n          IUniswapV2Router(UNISWAP_V2_ROUTER).swapExactTokensForTokens(_amountIn, _amountOutMin, path, payable(_to), block.timestamp);\r\n          \r\n      }\r\n      \r\n    } else {\r\n      path = new address[](2);\r\n      path[0] = _tokenIn;\r\n      path[1] = _tokenOut;\r\n      IUniswapV2Router(UNISWAP_V2_ROUTER).swapExactTokensForTokens(_amountIn, _amountOutMin, path, payable(_to), block.timestamp);\r\n    }\r\n\r\n    }\r\n    \r\n     function getAmountOutMin(address _tokenIn, address _tokenOut, uint256 _amountIn) external view returns (uint256) {\r\n\r\n       //path is an array of addresses.\r\n       //this path array will have 3 addresses [tokenIn, WETH, tokenOut]\r\n       //the if statement below takes into account if token in or token out is WETH.  then the path is only 2 addresses\r\n        address[] memory path;\r\n        if (_tokenIn == WETH || _tokenOut == WETH) {\r\n            path = new address[](2);\r\n            path[0] = _tokenIn;\r\n            path[1] = _tokenOut;\r\n        } else {\r\n            path = new address[](2);\r\n            path[0] = _tokenIn;\r\n            path[1] = _tokenOut;\r\n        }\r\n        \r\n        uint256[] memory amountOutMins = IUniswapV2Router(UNISWAP_V2_ROUTER).getAmountsOut(_amountIn, path);\r\n        return amountOutMins[path.length -1];  \r\n        \r\n    }  \r\n    \r\n \r\n    \r\n   // check if this is nedded\r\n    receive() payable external {}\r\n}",
  "sourcePath": "C:\\Users\\Luka\\Desktop\\SupportChildrenV2.0\\client\\src\\contracts\\Swap.sol",
  "compiler": {
    "name": "solc",
    "version": "0.8.7+commit.e28d00a7.Emscripten.clang"
  },
  "schemaVersion": "3.4.1",
  "updatedAt": "2021-08-18T22:39:37.786Z",
  "networkType": "ethereum",
  "devdoc": {
    "kind": "dev",
    "methods": {},
    "version": 1
  },
  "userdoc": {
    "kind": "user",
    "methods": {},
    "version": 1
  }
}